:020000040800F2
:10000000000003207D6300081D6100082B610008CB
:1000100031610008376100083D6100080000000000
:100020000000000000000000000000004361000824
:1000300051610008000000005F6100086D61000868
:10004000CD630008CD630008CD630008CD630008D0
:10005000CD630008CD630008CD630008CD630008C0
:10006000CD630008CD630008CD6300087961000806
:10007000CD630008CD630008CD630008CD630008A0
:10008000CD630008CD630008CD630008CD63000890
:10009000CD630008CD630008CD630008CD63000880
:1000A000CD630008CD630008CD630008CD63000870
:1000B000CD630008CD630008CD630008CD63000860
:1000C000CD630008CD630008CD630008CD63000850
:1000D000CD630008CD630008CD630008CD63000840
:1000E000CD630008CD630008CD630008CD63000830
:1000F000CD630008CD630008CD630008CD63000820
:10010000CD630008CD630008CD630008CD6300080F
:10011000CD630008CD630008CD630008CD630008FF
:10012000CD630008CD630008CD630008CD630008EF
:0C013000CD630008CD630008CD6300081B
:1001400010B5054C237833B9044B13B10448AFF311
:1001500000800123237010BD780100200000000002
:100160002864000808B5034B1BB103490348AFF3EB
:10017000008008BD000000007C0100202864000809
:10018000034613F8012B002AFBD1181A01387047D7
:1001900053B94AB9002908BF00281CBF4FF0FF31EE
:1001A0004FF0FF3000F07AB9ADF1080C6DE904CEE4
:1001B00000F006F8DDF804E0DDE9022304B0704742
:1001C0002DE9F0478C460D460446089E002B51D180
:1001D0008A4217466DD9B2FA82FEBEF1000F0BD0EB
:1001E000CEF1200C01FA0EF520FA0CFC02FA0EF703
:1001F0004CEA050C00FA0EF44FEA174A250CBCFB3A
:10020000FAF81FFA87F90AFB18CC45EA0C4508FBF7
:1002100009F3AB420AD9ED1908F1FF3280F02381CE
:10022000AB4240F22081A8F102083D44ED1AA4B28D
:10023000B5FBFAF00AFB105544EA054400FB09F946
:10024000A14509D9E41900F1FF3380F00A81A145E5
:1002500040F2078102383C44A4EB090440EA08401C
:100260000021002E61D024FA0EF400233460736064
:10027000BDE8F0878B4207D9002E54D0002186E8D4
:1002800021000846BDE8F087B3FA83F1002940F069
:100290008E80AB4202D3824200F2FA80841A65EB70
:1002A00003050120AC46002E3FD086E81010BDE8C3
:1002B000F08712B90127B7FBF2F7B7FA87FEBEF154
:1002C000000F34D1EB1B3A0C1FFA87FC0121B3FB62
:1002D000F2F8250C02FB183345EA03450CFB08F342
:1002E000AB4207D9ED1908F1FF3002D2AB4200F260
:1002F000D1808046ED1AA3B2B5FBF2F002FB105597
:1003000043EA05440CFB00FCA44507D9E41900F1BD
:10031000FF3302D2A44500F2B8801846A4EB0C04C7
:1003200040EA08409DE731463046BDE8F087CEF10F
:10033000200405FA0EF307FA0EF720FA04F83A0C37
:1003400025FA04F448EA0308B4FBF2F14FEA184531
:1003500002FB11441FFA87FC45EA044501FB0CF33C
:10036000AB4200FA0EF409D9ED1901F1FF3080F02B
:100370008A80AB4240F2878002393D44EB1A1FFA73
:1003800088F5B3FBF2F002FB103345EA034500FBAE
:100390000CF3AB4207D9ED1900F1FF386FD2AB4235
:1003A0006DD902383D44EB1A40EA01418FE7C1F1B3
:1003B000200722FA07F88B4005FA01F448EA030304
:1003C00020FA07FE4FEA134CFD404EEA040EB5FB3F
:1003D000FCF94FEA1E440CFB19551FFA83F844EA56
:1003E000054509FB08F4AC4202FA01F200FA01FAF1
:1003F00008D9ED1809F1FF3043D2AC4241D9A9F137
:1004000002091D442D1B1FFA8EFEB5FBFCF00CFBF0
:1004100010554EEA054400FB08F8A04507D9E4183A
:1004200000F1FF3529D2A04527D902381C4440EA03
:100430000940A4EB0804A0FB02894C45C6464D4682
:1004400015D312D056B1BAEB0E0364EB050404FACF
:1004500007F7CB401F43CC40376074600021BDE8F4
:10046000F0871846F8E69046E0E6C245EAD2B8EBD7
:10047000020E69EB03050138E4E72846D7E740465A
:1004800091E78146BEE7014678E702383C4445E7FC
:10049000084608E7A8F102083D442BE7704700BF73
:1004A00080B582B000AF0023FB710C4A0B4B1B6878
:1004B00043F480731360032000F066F9002000F01D
:1004C0000FF80346002B02D00123FB7101E005F079
:1004D0002EFDFB7918460837BD4680BD0040005808
:1004E00080B584B000AF78600023FB73174B1B68A6
:1004F000002B23D002F0B0FB0146144B1B684FF4D5
:100500007A72B2FBF3F3B1FBF3F3184600F06FF924
:100510000346002B0FD17B680F2B09D80022796886
:100520004FF0FF3000F03BF9094A7B68136007E0A9
:100530000123FB7304E00123FB7301E00123FB7340
:10054000FB7B18461037BD4680BD00BF0800002069
:100550000400002080B400AF054B1A68054B1B68EF
:100560001344034A136000BFBD465DF8047B704727
:10057000C40200200800002080B400AF034B1B68B9
:100580001846BD465DF8047B704700BFC4020020DA
:1005900080B400AF034B1B681846BD465DF8047B72
:1005A000704700BF0400002080B584B000AF7860C1
:1005B000FFF7E2FFB8607B68FB60FB68B3F1FF3FC9
:1005C00004D0094B1B68FA681344FB6000BFFFF7B7
:1005D000D3FF0246BB68D21AFB689A42F7D300BF2A
:1005E0001037BD4680BD00BF0800002080B485B034
:1005F00000AF78607B6803F00703FB600C4BDB689F
:10060000BB60BA684FF6FF031340BB60FB681A0279
:10061000BB68134343F0BF6343F40033BB60044A39
:10062000BB68D36000BF1437BD465DF8047B7047DC
:1006300000ED00E080B400AF044BDB681B0A03F060
:1006400007031846BD465DF8047B704700ED00E0E7
:1006500080B483B000AF0346FB7197F90730002BDD
:100660000BDB094997F907305B09FA7902F01F02A1
:10067000012000FA02F241F8232000BF0C37BD46EA
:100680005DF8047B704700BF00E100E080B483B0F8
:1006900000AF03463960FB7197F90730002B0ADB86
:1006A0000D4997F907303A68D2B21201D2B20B4421
:1006B00083F800230AE00949FB7903F00F03043BA8
:1006C0003A68D2B21201D2B20B441A7600BF0C378C
:1006D000BD465DF8047B704700E100E000ED00E0FE
:1006E00080B489B000AFF860B9607A60FB6803F04D
:1006F0000703FB61FB69C3F10703042B28BF042335
:10070000BB61FB690433062B02D9FB69033B00E0A4
:1007100000237B610122BB6902FA03F35A1EBB6806
:100720001A407B699A4001217B6901FA03F3591E43
:100730007B680B40134318462437BD465DF8047BA5
:100740007047000080B582B000AF78607B68013BE5
:10075000B3F1807F01D301230FE00A4A7B68013B9C
:1007600053600F214FF0FF30FFF790FF054B002241
:100770009A60044B07221A60002318460837BD46CA
:1007800080BD00BF10E000E080B582B000AF7860AF
:100790007868FFF72BFF00BF0837BD4680BD80B5E6
:1007A00086B000AF0346B9607A60FB73FFF742FF83
:1007B00078617A68B9687869FFF792FF024697F91D
:1007C0000F3011461846FFF761FF00BF1837BD46CE
:1007D00080BD80B582B000AF0346FB7197F907304A
:1007E0001846FFF735FF00BF0837BD4680BD80B50E
:1007F00082B000AF78607868FFF7A4FF0346184620
:100800000837BD4680BD000080B584B000AF786079
:100810007B68002B01D101238DE07B681B681A46A1
:10082000474B9A420FD87B681B681A46454B1344C6
:10083000454AA2FB03231B099A007B685A647B6824
:10084000424A1A640EE07B681B681A46404B134408
:100850003D4AA2FB03231B099A007B685A647B680C
:100860003C4A1A647B68022283F825207B681B6857
:100870001B68FB60FB6823F4FF4323F07003FB60FD
:100880007B689A687B68DB681A437B681B691A433C
:100890007B685B691A437B689B691A437B68DB69E9
:1008A0001A437B681B6A1343FA681343FB607B6837
:1008B0001B68FA681A60786800F0B6F97B689B6874
:1008C000B3F5804F02D17B6800225A607B689B6C35
:1008D0007A685268D2B21A607B68DB6C7A68126DF3
:1008E0005A607B685B68002B10D07B685B68042BC8
:1008F0000CD8786800F0D6F97B685B6D00221A602E
:100900007B689B6D7A68D26D5A6008E07B68002234
:100910005A657B6800229A657B680022DA657B68ED
:100920000022DA637B68012283F825207B6800229D
:1009300083F82420002318461037BD4680BD00BF31
:1009400007040240F8FFFDBFCDCCCCCC0000024034
:10095000F8FBFDBF0004024080B586B000AFF86030
:10096000B9607A603B600023FB75FB6893F8243024
:10097000012B01D1022366E0FB68012283F82420C9
:10098000FB6893F82530DBB2012B55D1FB680222BE
:1009900083F82520FB680022DA63FB681B68FA688D
:1009A0001268126822F001021A603B687A68B9681E
:1009B000F86800F0FBF8FB681B6B002B08D0FB68A5
:1009C0001B68FA681268126842F00E021A600FE0A3
:1009D000FB681B68FA681268126822F004021A6049
:1009E000FB681B68FA681268126842F00A021A6013
:1009F000FB689B6C1B6803F48033002B07D0FB68FB
:100A00009B6CFA68926C126842F480721A60FB6800
:100A10005B6D002B07D0FB685B6DFA68526D126846
:100A200042F480721A60FB681B68FA6812681268E8
:100A300042F001021A6005E0FB68002283F82420DE
:100A40000223FB75FB7D18461837BD4680BD80B577
:100A500084B000AF78607B681B6C1B68FB607B68B0
:100A60001B681B68BB607B685B6C03F01C03042283
:100A70009A40FB681340002B26D0BB6803F00403A8
:100A8000002B21D07B681B681B6803F02003002B20
:100A900007D17B681B687A681268126822F004022A
:100AA0001A607B681B6C7A68526C02F01C0204218D
:100AB00001FA02F25A607B681B6B002B71D07B68D5
:100AC0001B6B786898476CE07B685B6C03F01C03D9
:100AD00002229A40FB681340002B2ED0BB6803F023
:100AE0000203002B29D07B681B681B6803F02003DE
:100AF000002B0BD17B681B687A681268126822F0A1
:100B00000A021A607B68012283F825207B681B6C2F
:100B10007A68526C02F01C02022101FA02F25A6059
:100B20007B68002283F824207B68DB6A002B38D0A6
:100B30007B68DB6A7868984733E07B685B6C03F01E
:100B40001C0308229A40FB681340002B2AD0BB6884
:100B500003F00803002B25D07B681B687A681268B5
:100B6000126822F00E021A607B681B6C7A68526C65
:100B700002F01C02012101FA02F25A607B68012294
:100B8000DA637B68012283F825207B68002283F8E2
:100B900024207B685B6B002B04D07B685B6B7868E0
:100BA000984700BF00BF1037BD4680BD80B485B0F8
:100BB00000AFF860B9607A603B60FB68DB6CFA6894
:100BC000126D5A60FB685B6D002B04D0FB689B6D57
:100BD000FA68D26D5A60FB681B6CFA68526C02F0BE
:100BE0001C02012101FA02F25A60FB681B683A6894
:100BF0005A60FB689B68102B08D1FB681B687A68F9
:100C00009A60FB681B68BA68DA6007E0FB681B68DB
:100C1000BA689A60FB681B687A68DA6000BF1437AC
:100C2000BD465DF8047B704780B485B000AF786046
:100C30007B681B681A46174B9A420AD87B685B6C24
:100C40009B089B0003F1804303F502337A689364A9
:100C500007E07B685B6C9B089A000F4B13447A6833
:100C600093647B681B68DBB2083B0C4AA2FB03233E
:100C70001B09FB607B680A4ADA64FB6803F01C030B
:100C800001229A407B681A6500BF1437BD465DF8A3
:100C9000047B7047070402401C080240CDCCCCCC3A
:100CA0008008024080B485B000AF78607B685B68E4
:100CB000DBB2FB60FA680B4B13449B001A467B685F
:100CC0005A657B68084A9A65FB68013B03F0030399
:100CD00001229A407B68DA6500BF1437BD465DF893
:100CE000047B70473F8200104009024080B487B007
:100CF00000AF7860396000237B614CE13B681A6883
:100D000001217B6901FA03F31340FB60FB68002BB0
:100D100000F03E813B685B68022B03D03B685B6858
:100D2000122B23D17B69DA087B68083253F8223012
:100D30003B617B6903F007039B000F2202FA03F378
:100D4000DB433A6913403B613B681A697B6903F0F6
:100D500007039B0002FA03F33A6913433B617B6983
:100D6000DA087B680832396943F822107B681B680F
:100D70003B617B695B00032202FA03F3DB433A69C0
:100D800013403B613B685B6803F003027B695B00D7
:100D900002FA03F33A6913433B617B683A691A60CC
:100DA0003B685B68012B0BD03B685B68022B07D06C
:100DB0003B685B68112B03D03B685B68122B30D11A
:100DC0007B689B683B617B695B00032202FA03F34B
:100DD000DB433A6913403B613B68DA687B695B003F
:100DE00002FA03F33A6913433B617B683A699A60FC
:100DF0007B685B683B6101227B6902FA03F3DB439A
:100E00003A6913403B613B685B681B0903F00102D0
:100E10007B6902FA03F33A6913433B617B683A69E1
:100E20005A607B68DB683B617B695B00032202FAE6
:100E300003F3DB433A6913403B613B689A687B6983
:100E40005B0002FA03F33A6913433B617B683A693A
:100E5000DA603B685B6803F08053002B00F09880F9
:100E6000544A7B699B08023352F823303B617B690B
:100E700003F003039B000F2202FA03F3DB433A69FA
:100E800013403B617B68B3F1904F19D07B684A4AAD
:100E9000934213D07B68494A93420DD07B68484AFD
:100EA000934207D07B68474A934201D1042308E06C
:100EB000072306E0032304E0022302E0012300E00D
:100EC00000237A6902F00302920093403A691343C7
:100ED0003B6138497B699B0802333A6941F823201A
:100EE000394BD3F880303B61FB68DB433A691340F0
:100EF0003B613B685B6803F48033002B03D03A69A5
:100F0000FB6813433B61304A3B69C2F880302E4B8B
:100F1000D3F884303B61FB68DB433A6913403B61A3
:100F20003B685B6803F40033002B03D03A69FB682D
:100F300013433B61244A3B69C2F88430224B1B684F
:100F40003B61FB68DB433A6913403B613B685B688C
:100F500003F48013002B03D03A69FB6813433B6111
:100F6000194A3B691360184B5B683B61FB68DB43C4
:100F70003A6913403B613B685B6803F40013002B44
:100F800003D03A69FB6813433B610F4A3B695360E6
:100F90007B6901337B613B681A687B6922FA03F342
:100FA000002B7FF4ABAE00BF1C37BD465DF8047B61
:100FB000704700BF000001400004004800080048DE
:100FC000000C0048001000480008005880B483B0AE
:100FD00000AF78600B467B8013467B707B78002BDC
:100FE00003D07A887B689A6102E07A887B689A628B
:100FF00000BF0C37BD465DF8047B704780B582B0FA
:1010000000AF78607B68002B01D1012380E07B6812
:1010100093F84130DBB2002B06D17B68002283F8C5
:101020004020786804F08AFF7B68242283F84120FE
:101030007B681B687A681268126822F001021A60E5
:101040007B681B687A68526822F070621A617B685C
:101050001B687A681268926822F400429A607B6882
:10106000DB68012B07D17B681B687A68926842F4C1
:1010700000429A6006E07B681B687A68926842F4D6
:1010800004429A607B68DB68022B04D17B681B6892
:101090004FF400625A607B681A687B681B685B6863
:1010A00043F0007343F4004353607B681B687A6825
:1010B0001268D26822F40042DA607B681B687A68A2
:1010C00011697A68526911437A68926912020A4377
:1010D000DA607B681B687A68D1697A68126A0A43A9
:1010E0001A607B681B687A681268126842F0010215
:1010F0001A607B6800225A647B68202283F84120B2
:101100007B6800221A637B68002283F84220002358
:1011100018460837BD4680BD80B588B002AFF8607C
:101120007A601A460B467B8113463B81FB6893F835
:101130004130DBB2202B40F0DA80FB6893F840307E
:10114000012B01D10223D3E0FB68012283F8402068
:10115000FFF712FA78617B690093192301224FF49B
:101160000041F86800F0F7F90346002B01D0012395
:10117000BEE0FB68212283F84120FB68102283F83F
:101180004220FB6800225A64FB687A685A62FB6856
:101190003A895A85FB6800225A63FB685B8D9BB2D3
:1011A000FF2B0ED9FB68FF221A85FB681B8DDAB274
:1011B0007989514B00934FF08073F86800F0EEFA94
:1011C0006CE0FB685B8D9AB2FB681A85FB681B8D2F
:1011D000DAB27989484B00934FF00073F86800F059
:1011E000DDFA5BE07A69396AF86800F0F4F90346E1
:1011F000002B01D001237BE0FB681B68FA68526A70
:1012000012789A62FB685B6A5A1CFB685A62FB6838
:101210005B8D9BB2013B9AB2FB685A85FB681B8DC4
:10122000013B9AB2FB681A85FB685B8D9BB2002B71
:1012300034D0FB681B8D002B30D17B6900933B6A57
:1012400000228021F86800F086F90346002B01D0C7
:1012500001234DE0FB685B8D9BB2FF2B0ED9FB6831
:10126000FF221A85FB681B8DDAB27989002300936F
:101270004FF08073F86800F091FA0FE0FB685B8D27
:101280009AB2FB681A85FB681B8DDAB27989002354
:1012900000934FF00073F86800F080FAFB685B8DF4
:1012A0009BB2002B9ED17A69396AF86800F0D3F9B5
:1012B0000346002B01D001231AE0FB681B682022A3
:1012C000DA61FB681A68FB681B6859680B4B0B40B6
:1012D0005360FB68202283F84120FB68002283F8DA
:1012E0004220FB68002283F84020002300E0022314
:1012F00018461837BD4680BD0020008000E800FE7B
:1013000080B58AB002AFF8607A603B600B467B81A3
:1013100000237B61FB6893F84130DBB2202B40F067
:10132000F180FB681B689B6903F40043B3F5004F31
:1013300001D10223E7E0FB6893F84030012B01D193
:101340000223E0E0FB68012283F84020FB682422AE
:1013500083F84120FB6800225A64FB681A68FB6826
:10136000DB68012B07D17B89C3F3090343F00073CA
:1013700043F4005304E07B89C3F3090343F420538F
:101380005360FFF7F9F8B861FB681B689B6903F0CD
:101390002003202B0CBF01230023DBB2FB77FB686B
:1013A0001B689B6903F01003102B0CBF0123002363
:1013B000DBB2BB7734E03B68B3F1FF3F1AD0FFF7F5
:1013C000DBF80246BB69D21A3B689A4202D83B68F6
:1013D000002B0FD1FB68202283F84120FB685B6C57
:1013E00043F02002FB685A64FB68002283F8402027
:1013F000012388E0FB681B689B6903F02003202B16
:101400000CBF01230023DBB2FB77FB681B689B69E1
:1014100003F01003102B0CBF01230023DBB2BB77BA
:10142000FB7F002B02D1BB7F002BC4D0FB681B6865
:101430009B6903F01003102B1AD0BB6900933B6823
:1014400000222021F86800F086F80346002B01D026
:10145000012358E0FB681B682022DA61FB68202228
:1014600083F84120FB68002283F8402000234AE0F3
:10147000BB6900933B6800222021F86800F06BF8FC
:101480000346002B01D001233DE0FB681B681022BE
:10149000DA61FB681B682022DA617A697B689A420C
:1014A00018D1FB681B68FA681268526842F48042DF
:1014B0005A60BB6900933B6800222021F86800F065
:1014C0004AF80346002B01D001231CE0FB681B688F
:1014D0002022DA617B6901337B617A697B689A42F9
:1014E000FFF43BAFFB68202283F84120FB685B6C74
:1014F00043F02002FB685A64FB68002283F8402016
:10150000012300E0022318462037BD4680BD80B489
:1015100083B000AF78607B681B689B6903F00203AF
:10152000022B03D17B681B6800229A627B681B68D0
:101530009B6903F00103012B07D07B681B687A6865
:101540001268926942F001029A6100BF0C37BD46F1
:101550005DF8047B704780B584B000AFF860B96077
:101560003B601346FB7122E03B68B3F1FF3F1ED0A6
:10157000FFF702F80246BB69D21A3B689A4202D8CA
:101580003B68002B13D1FB685B6C43F02002FB68C7
:101590005A64FB68202283F84120FB68002283F80C
:1015A0004220FB68002283F8402001230FE0FB6803
:1015B0001B689A69BB681A40BB689A420CBF01233A
:1015C0000023DBB21A46FB799A42CDD0002318469D
:1015D0001037BD4680BD80B584B000AFF860B960FB
:1015E0007A602CE07A68B968F86800F071F8034610
:1015F000002B01D001232AE0BB68B3F1FF3F1ED0CE
:10160000FEF7BAFF02467B68D21ABB689A4202D83C
:10161000BB68002B13D1FB685B6C43F02002FB68B6
:101620005A64FB68202283F84120FB68002283F87B
:101630004220FB68002283F84020012307E0FB687A
:101640001B689B6903F00203022BCBD100231846D1
:101650001037BD4680BD80B584B000AFF860B9607A
:101660007A6028E07A68B968F86800F031F80346D3
:10167000002B01D0012326E0FEF77EFF02467B68A7
:10168000D21ABB689A4202D8BB68002B13D1FB6800
:101690005B6C43F02002FB685A64FB68202283F8ED
:1016A0004120FB68002283F84220FB68002283F877
:1016B0004020012307E0FB681B689B6903F02003BF
:1016C000202BCFD1002318461037BD4680BD000027
:1016D00080B584B000AFF860B9607A60FB681B68C1
:1016E0009B6903F01003102B51D122E0BB68B3F1CA
:1016F000FF3F1ED0FEF740FF02467B68D21ABB6850
:101700009A4202D8BB68002B13D1FB685B6C43F094
:101710002002FB685A64FB68202283F84120FB68A2
:10172000002283F84220FB68002283F84020012336
:101730002EE0FB681B689B6903F02003202BD5D1AA
:10174000FB681B681022DA61FB681B682022DA61E3
:10175000F868FFF7DCFEFB681A68FB681B685968CD
:101760000D4B0B405360FB685B6C43F00402FB685D
:101770005A64FB68202283F84120FB68002283F82A
:101780004220FB68002283F84020012300E0002370
:1017900018461037BD4680BD00E800FE80B485B015
:1017A00000AFF8607B600B467B8113467B72FB6861
:1017B0001A68FB681B685968BB695B0D03F480609D
:1017C0000B4B0343DB4319407B89C3F309007B7A4E
:1017D0001B0403F47F0318437B681843BB6903436E
:1017E0000B43536000BF1437BD465DF8047B704760
:1017F000FF63FF0380B483B000AF786039607B681B
:1018000093F84130DBB2202B38D17B6893F840301D
:10181000012B01D1022332E07B68012283F84020B2
:101820007B68242283F841207B681B687A681268F1
:10183000126822F001021A607B681B687A681268DD
:10184000126822F480521A607B681B687A681268FA
:1018500011683A680A431A607B681B687A681268E4
:10186000126842F001021A607B68202283F841204E
:101870007B68002283F84020002300E00223184602
:101880000C37BD465DF8047B704780B485B000AF6F
:10189000786039607B6893F84130DBB2202B39D116
:1018A0007B6893F84030012B01D1022333E07B6841
:1018B000012283F840207B68242283F841207B6842
:1018C0001B687A681268126822F001021A607B684D
:1018D0001B681B68FB60FB6823F47063FB603B685C
:1018E0001B02FA681343FB607B681B68FA681A6086
:1018F0007B681B687A681268126842F001021A60FD
:101900007B68202283F841207B68002283F84020F6
:10191000002300E0022318461437BD465DF8047B1F
:101920007047F0B58BB006AF78607B68002B01D1B3
:101930000123ADE07B6893F82932DBB2002B06D19E
:101940007B68002283F82822786804F0B7FB7B6864
:10195000032283F829227B681B68184603F03CFDAC
:101960000023FB7335E0FB7B7A685B01134429336A
:1019700001221A70FB7B7A685B0113442833FA7BDF
:101980001A70FB7BFA7B91B27A685B0113443633A1
:101990000A461A80FB7B7A685B0113442B330022D2
:1019A0001A70FB7B7A685B011344383300221A609B
:1019B000FB7B7A685B0113443C3300221A60FB7B9B
:1019C0007A6802335B01134400221A60FB7B013307
:1019D000FB73FA7B7B685B689A42C4D30023FB737A
:1019E00031E0FB7B7A685B01134403F22913002288
:1019F0001A70FB7B7A685B01134403F59473FA7BDE
:101A00001A70FB7B7A685B01134403F22B130022EC
:101A10001A70FB7B7A685B01134403F59C73002208
:101A20001A60FB7B7A685B01134403F59E73002206
:101A30001A60FB7B7A680A335B01134400221A6048
:101A4000FB7B0133FB73FA7B7B685B689A42C8D3EC
:101A50007B681B683B607E686D4606F110040FCC06
:101A60000FC523682B60331D0ECB386803F0D1FC03
:101A70007B68002283F824207B68012283F82922D6
:101A80007B68DB69012B02D1786800F005F8002340
:101A900018461437BD46F0BD80B485B000AF7860FD
:101AA0007B681B68FB607B680122C3F868227B6847
:101AB000002283F86022FB68B3F854309BB243F0F5
:101AC00001039AB2FB68A3F85420FB68B3F85430C2
:101AD0009BB243F002039AB2FB68A3F854200023A0
:101AE00018461437BD465DF8047B704780B400AFDC
:101AF000054A054B1B6843F48073136000BFBD4665
:101B00005DF8047B704700BF0004005880B400AF4C
:101B1000044B1B6803F4C0631846BD465DF8047BA4
:101B2000704700BF0004005880B400AF4FF0B043CE
:101B30001B6803F48013B3F5801F01D1012300E07B
:101B400000231846BD465DF8047B704780B400AFA3
:101B50004FF0B0424FF0B0431B6843F48023136052
:101B600000BFBD465DF8047B704780B400AF4FF006
:101B7000B0424FF0B0431B6823F48023136000BFD2
:101B8000BD465DF8047B704780B400AF4FF0B042B3
:101B90004FF0B0431B6843F48033136000BFBD4671
:101BA0005DF8047B704780B400AF4FF0B0424FF057
:101BB000B0431B6823F48033136000BFBD465DF85B
:101BC000047B704780B400AF4FF0B0431B6803F450
:101BD0000033B3F5003F01D1012300E00023184694
:101BE000BD465DF8047B704780B400AF4FF0B04253
:101BF0004FF0B0431B6843F48073136000BFBD46D1
:101C00005DF8047B704780B400AF4FF0B0424FF0F6
:101C1000B0431B6823F48073136000BFBD465DF8BA
:101C2000047B704780B400AF4FF0B0431B6803F4EF
:101C30008063B3F5806F01D1012300E000231846D3
:101C4000BD465DF8047B704780B483B000AF786018
:101C50004FF0B0414FF0B0435B6823F0FE427B6829
:101C60001B0613434B6000BF0C37BD465DF8047B79
:101C7000704780B400AF4FF0B0424FF0B043D3F89C
:101C8000983043F00103C2F8983000BFBD465DF8BC
:101C9000047B704780B400AF4FF0B0424FF0B043C8
:101CA000D3F8983023F00103C2F8983000BFBD4646
:101CB0005DF8047B704780B400AF4FF0B043D3F8B9
:101CC000983003F00203022B01D1012300E000232E
:101CD0001846BD465DF8047B704780B400AF4FF0F6
:101CE000B0424FF0B043D3F8903043F00103C2F854
:101CF000903000BFBD465DF8047B704780B400AFF4
:101D00004FF0B0424FF0B043D3F8903023F00103CE
:101D1000C2F8903000BFBD465DF8047B704780B4C8
:101D200000AF4FF0B0424FF0B043D3F8903043F0E3
:101D30000403C2F8903000BFBD465DF8047B7047D5
:101D400080B400AF4FF0B0424FF0B043D3F89030C2
:101D500023F00403C2F8903000BFBD465DF8047B59
:101D6000704780B400AF4FF0B043D3F8903003F029
:101D70000203022B01D1012300E000231846BD46D7
:101D80005DF8047B704780B400AF4FF0B0424FF075
:101D9000B043D3F8943043F00103C2F8943000BF4D
:101DA000BD465DF8047B704780B400AF4FF0B04291
:101DB0004FF0B043D3F8943023F00103C2F89430CD
:101DC00000BFBD465DF8047B704780B400AF4FF0A4
:101DD000B043D3F8943003F00203022B01D1012366
:101DE00000E000231846BD465DF8047B704780B4D0
:101DF00000AF4FF0B0424FF0B043D3F8943043F00F
:101E00000403C2F8943000BFBD465DF8047B704700
:101E100080B400AF4FF0B0424FF0B043D3F89430ED
:101E200023F00403C2F8943000BFBD465DF8047B84
:101E3000704780B400AF4FF0B043D3F8943003F054
:101E40000803082B01D1012300E000231846BD46FA
:101E50005DF8047B704780B483B000AF78604FF0CA
:101E6000B0414FF0B043D3F8943023F470627B68F4
:101E70001B021343C1F8943000BF0C37BD465DF818
:101E8000047B704780B400AF4FF0B0424FF0B043D6
:101E90001B6843F00103136000BFBD465DF8047B7F
:101EA000704780B400AF4FF0B0424FF0B0431B68B2
:101EB00023F00103136000BFBD465DF8047B70474B
:101EC00080B400AF4FF0B0431B6803F00203022B55
:101ED00001D1012300E000231846BD465DF8047BD4
:101EE000704780B483B000AF78604FF0B0414FF0DE
:101EF000B0431B6823F0F0027B6813430B6000BF04
:101F00000C37BD465DF8047B704780B483B000AFEA
:101F10004FF0B0431B6803F0F0037B607B68B02B8D
:101F200001D9B0237B607B6818460C37BD465DF84D
:101F3000047B704780B483B000AF78604FF0B0414D
:101F40004FF0B0435B6823F47F427B681B0213436E
:101F50004B6000BF0C37BD465DF8047B704780B412
:101F600083B000AF78604FF0B0414FF0B0439B6852
:101F700023F003027B6813438B6000BF0C37BD4620
:101F80005DF8047B704780B400AF4FF0B0439B68AE
:101F900003F00C031846BD465DF8047B704780B41F
:101FA00083B000AF78604FF0B0414FF0B0439B6812
:101FB00023F0F0027B6813438B6000BF0C37BD46F3
:101FC0005DF8047B704780B483B000AF78604FF059
:101FD000B0414FF0B043D3F8083123F0F0027B68F2
:101FE0001343C1F8083100BF0C37BD465DF8047BD0
:101FF000704780B483B000AF78604FF0B0414FF0CD
:10200000B043D3F8083123F00F027B681B09134358
:10201000C1F8083100BF0C37BD465DF8047B70473E
:1020200080B483B000AF78604FF0B0414FF0B04360
:102030009B6823F4E0627B6813438B6000BF0C371E
:10204000BD465DF8047B704780B483B000AF786014
:102050004FF0B0414FF0B0439B6823F460527B686F
:1020600013438B6000BF0C37BD465DF8047B70479F
:1020700080B400AF4FF0B0439B6803F0F003184604
:10208000BD465DF8047B704780B400AF4FF0B043AD
:10209000D3F808311B0103F0F0031846BD465DF884
:1020A000047B704780B400AF4FF0B0439B6803F4EB
:1020B000E0631846BD465DF8047B704780B400AF0E
:1020C0004FF0B0439B6803F460531846BD465DF87B
:1020D000047B704780B400AF4FF0B0424FF0B04384
:1020E0001B6843F08073136000BFBD465DF8047B3E
:1020F000704780B400AF4FF0B0424FF0B0431B6860
:1021000023F08073136000BFBD465DF8047B704709
:1021100080B400AF4FF0B0431B6803F00073B3F11D
:10212000007F01D1012300E000231846BD465DF881
:10213000047B704780B400AF4FF0B043DB681B0AEC
:1021400003F07F031846BD465DF8047B704780B4FA
:1021500000AF4FF0B043DB6803F060431846BD4664
:102160005DF8047B704780B400AF4FF0B043DB688C
:1021700003F070031846BD465DF8047B704780B4D9
:1021800000AF4FF0B043DB6803F003031846BD46D1
:102190005DF8047B704780B400AF4FF0B0439B689C
:1021A00003F48033B3F5803F01D1012300E0002325
:1021B0001846BD465DF8047B704780B400AF4FF011
:1021C000B043D3F8083103F40033B3F5003F01D135
:1021D000012300E000231846BD465DF8047B7047EC
:1021E00080B400AF4FF0B043D3F8083103F480332C
:1021F000B3F5803F01D1012300E000231846BD461E
:102200005DF8047B704780B400AF4FF0B0439B682B
:1022100003F40033B3F5003F01D1012300E00023B4
:102220001846BD465DF8047B704780B400AF4FF0A0
:10223000B0439B6803F48023B3F5802F01D10123C1
:1022400000E000231846BD465DF8047B704700009F
:1022500090B58BB000AF78607B68002B01D1012373
:102260004BE37B681B6803F02003002B00F08F809A
:10227000FFF789FE7862FFF782FF38627B6A002BE6
:1022800005D07B6A0C2B49D13B6A012B46D1FFF765
:1022900017FE0346002B05D07B68DB69002B01D1BC
:1022A00001232AE37B685C6AFFF72FFE03469C420A
:1022B00014D97B685B6A184600F00EFD0346002BBC
:1022C00001D0012319E37B685B6A1846FFF709FE1A
:1022D0007B681B6A1846FFF72DFE13E07B685B6A7C
:1022E0001846FFF7FEFD7B681B6A1846FFF722FEC3
:1022F0007B685B6A184600F0EFFC0346002B01D0B8
:102300000123FAE203F098FFB44B1B681846FEF76E
:10231000E7F80346002B39D00123EEE27B68DB6946
:10232000002B1ED0FFF7AEFDFEF726F9F86108E09E
:10233000FEF722F90246FB69D31A022B01D90323C7
:10234000DBE2FFF7BDFD0346002BF1D07B685B6A43
:102350001846FFF7C6FD7B681B6A1846FFF7EAFDC3
:1023600015E0FFF79EFDFEF707F9F86108E0FEF7BC
:1023700003F90246FB69D31A022B01D90323BCE2FD
:10238000FFF79EFD0346002BF1D100E000BF7B6804
:102390001B6803F00103002B5AD0FFF7F4FDB8616E
:1023A000FFF7EDFE7861BB69082B05D0BB690C2BEC
:1023B0000DD17B69032B0AD1FFF704FC0346002BE8
:1023C00045D07B685B68002B41D1012395E27B6897
:1023D0005B68B3F5803F02D1FFF7D6FB0DE07B6869
:1023E0005B68B3F5A02F04D1FFF7B0FBFFF7CCFB80
:1023F00003E0FFF7D8FBFFF7B8FB7B685B68002BB7
:1024000012D0FEF7B9F8F86108E0FEF7B5F8024619
:10241000FB69D31A642B01D903236EE2FFF7D2FBC9
:102420000346002BF1D013E0FEF7A6F8F86108E0B0
:10243000FEF7A2F80246FB69D31A642B01D90323E5
:102440005BE2FFF7BFFB0346002BF1D100E000BFCA
:102450007B681B6803F00203002B51D0FFF793FD4C
:102460003861FFF78CFEF8603B69042B05D03B69AF
:102470000C2B13D1FB68022B10D1FFF7D3FB0346C3
:10248000002B05D07B68DB68002B01D1012334E2EF
:102490007B681B691846FFF7D7FB31E07B68DB6878
:1024A000002B19D0FFF7A0FBFEF766F8F86108E0F3
:1024B000FEF762F80246FB69D31A022B01D9032307
:1024C0001BE2FFF7AFFB0346002BF1D07B681B69D3
:1024D0001846FFF7B9FB13E0FFF795FBFEF74CF842
:1024E000F86108E0FEF748F80246FB69D31A022BB0
:1024F00001D9032301E2FFF795FB0346002BF1D13D
:102500007B681B6803F00803002B06D17B681B68FF
:1025100003F01003002B00F0A2807B685B69002BA6
:1025200075D07B681B6803F01003002B46D0FFF7C3
:102530004CFC0346002B13D1FFF725FCFEF71CF8DB
:10254000F86108E0FEF718F80246FB69D31A022B7F
:1025500001D90323D1E1FFF738FC0346002BF1D06A
:10256000FFF745FCFEF708F8F86108E0FEF704F80D
:102570000246FB69D31A032B01D90323BDE1FFF700
:1025800058FC0346002BF1D07B689B691846FFF787
:1025900062FCFFF709FCFDF7EFFFF86108E0FDF7CB
:1025A000EBFF0246FB69D31A022B01D90323A4E1F6
:1025B000FFF70BFC0346002BF1D150E0FFF7E3FBE4
:1025C000FDF7DAFFF8610BE0FDF7D6FF0246FB6985
:1025D000D31A022B04D903238FE100BF040000208B
:1025E000FFF7F3FB0346002BEED0FFF711FC08E0EA
:1025F000FDF7C2FF0246FB69D31A032B01D903235F
:102600007BE1FFF716FC0346002BF1D127E0FFF733
:10261000FFFBFDF7B1FFF86108E0FDF7ADFF0246F3
:10262000FB69D31A032B01D9032366E1FFF701FCF1
:102630000346002BF1D1FFF7B7FBFDF79DFFF861D3
:1026400008E0FDF799FF0246FB69D31A022B01D976
:10265000032352E1FFF7B9FB0346002BF1D17B685E
:102660001B6803F00403002B5BD0A64B1B6803F42C
:102670008073002B14D1FFF739FAFDF77DFFF86165
:1026800008E0FDF779FF0246FB69D31A022B01D956
:10269000032332E19B4B1B6803F48073002BF0D0C3
:1026A0007B689B68012B02D1FFF717FB0CE07B686E
:1026B0009B68052B04D1FFF732FBFFF70EFB03E00D
:1026C000FFF71CFBFFF73CFB7B689B68002B14D0DB
:1026D000FDF752FFF8610AE0FDF74EFF0246FB6985
:1026E000D31A41F28832934201D9032305E1FFF75F
:1026F00038FB0346002BEFD013E0FDF73DFFF861F8
:102700000AE0FDF739FF0246FB69D31A41F288322D
:10271000934201D90323F0E0FFF723FB0346002B8C
:10272000EFD17B681B6803F04003002B2CD07B6843
:102730009B6A002B14D0FFF79CFAFDF71DFFF86190
:1027400008E0FDF719FF0246FB69D31A022B01D9F5
:102750000323D2E0FFF7AFFA0346002BF1D013E0DA
:10276000FFF798FAFDF708FFF86108E0FDF704FFAE
:102770000246FB69D31A022B01D90323BDE0FFF700
:102780009AFA0346002BF1D17B68DB6A002B00F03C
:10279000B380FFF7F8FB03460C2B76D07B68DB6A2F
:1027A000022B4BD1FFF7A5FCFDF7E6FEF86108E030
:1027B000FDF7E2FE0246FB69D31A022B01D903237F
:1027C0009BE0FFF7A5FC0346002BF1D14FF0B04092
:1027D0004FF0B043DA684C4B13407A68116B7A685B
:1027E000526B11437A68926B120211437A68D26B72
:1027F00011437A68126C11437A68526C0A4313438E
:10280000C360FFF767FC4FF0B0424FF0B043DB68A6
:1028100043F08053D360FDF7AFFEF86108E0FDF7A9
:10282000ABFE0246FB69D31A022B01D9032364E0F5
:10283000FFF76EFC0346002BF1D05DE0FFF759FC7B
:102840004FF0B0424FF0B043DB6823F00303D36096
:102850004FF0B0424FF0B043DB6823F0885323F4CD
:102860008033D360FDF788FEF86108E0FDF784FE51
:102870000246FB69D31A022B01D903233DE0FFF77F
:1028800047FC0346002BF1D136E07B68DB6A012B65
:1028900001D1012331E04FF0B043DB68BB60BB687E
:1028A00003F003027B681B6B9A4223D1BB6803F0E1
:1028B00070027B685B6B9A421CD1BB681B0A03F0F9
:1028C0007F027B689B6B9A4214D1BB6803F4781239
:1028D0007B68DB6B9A420DD1BB6803F060627B685A
:1028E0001B6C9A4206D1BB6803F060427B685B6C4C
:1028F0009A4201D0012300E0002318462C37BD4640
:1029000090BD00BF000400588C80C11180B584B018
:1029100000AF786039607B68002B01D101232AE188
:10292000974B1B6803F007023B689A421BD29449FD
:10293000934B1B6823F007023B6813430B60FDF7C2
:102940001BFEF86008E0FDF717FE0246FB68D31A8D
:10295000022B01D903230EE1894B1B6803F0070208
:102960003B689A42EFD17B681B6803F00203002B9F
:1029700016D07B689B681846FFF711FBFDF7FCFD3E
:10298000F86008E0FDF7F8FD0246FB68D31A022B59
:1029900001D90323EFE0FFF7FEFB0346002BF1D044
:1029A0007B681B6803F02003002B16D07B685B69F3
:1029B0001846FFF708FBFDF7DFFDF86008E0FDF7BC
:1029C000DBFD0246FB68D31A022B01D90323D2E0B8
:1029D000FFF7F3FB0346002BF1D07B681B6803F085
:1029E0004003002B16D07B689B691846FFF701FB5C
:1029F000FDF7C2FDF86008E0FDF7BEFD0246FB688A
:102A0000D31A022B01D90323B5E0FFF7E9FB0346F4
:102A1000002BF1D07B681B6803F00403002B16D059
:102A20007B68DB681846FFF7FBFAFDF7A5FDF86049
:102A300008E0FDF7A1FD0246FB68D31A022B01D97D
:102A4000032398E0FFF7DFFB0346002BF1D07B6800
:102A50001B6803F00803002B17D07B681B69DB00A1
:102A60001846FFF7F1FAFDF787FDF86008E0FDF77B
:102A700083FD0246FB68D31A022B01D903237AE0B7
:102A8000FFF7D3FB0346002BF1D07B681B6803F0F4
:102A90000103002B43D07B685B68022B06D1FFF754
:102AA00091F80346002B1ED1012364E07B685B682C
:102AB000032B06D1FFF72CFB0346002B13D1012378
:102AC00059E07B685B68002B06D1FFF7F9F90346F4
:102AD000002B08D101234EE0FFF7A4F80346002B9A
:102AE00001D1012347E07B685B681846FFF737FA9E
:102AF000FDF742FDF8600AE0FDF73EFD0246FB6887
:102B0000D31A41F28832934201D9032333E0FFF70D
:102B10003AFA02467B685B689B009A42ECD1184BFC
:102B20001B6803F007023B689A421BD91449144BF7
:102B30001B6823F007023B6813430B60FDF71CFD85
:102B4000F86008E0FDF718FD0246FB68D31A022B77
:102B500001D903230FE00A4B1B6803F007023B680F
:102B60009A42EFD103F068FBFDF712FD03461846C9
:102B7000FDF7B6FC034618461037BD4680BD00BFC2
:102B80000040005890B585B000AFFFF7FCF97860C1
:102B90007B68002B0AD1FFF7B8F903461B0903F045
:102BA0000F032A4A52F82330FB604AE07B68042B6B
:102BB00002D1274BFB6044E07B68082B0AD1FEF76B
:102BC000B3FF0346012B02D1214BFB6039E0214BBF
:102BD000FB6036E0FFF7D3FA38603B68022B02D087
:102BE000032B03D00DE01A4BBB6015E0FEF79CFFF2
:102BF0000346012B02D1164BBB600DE0154BBB60A9
:102C00000AE0FFF782F903461B0903F00F030F4A9E
:102C100052F82330BB6000BFFFF78CFA0246BB6856
:102C200003FB02F4FFF79FFA03461B090133B4FBD1
:102C3000F3F4FFF78CFA03465B0F0133B4FBF3F3B5
:102C4000FB60FB6818461437BD4690BDE064000881
:102C50000024F4000048E80198B500AFFFF792FFA8
:102C60000446FFF705FA03461B0903F00F03034A66
:102C700052F82330B4FBF3F3184698BD8064000883
:102C800098B500AFFFF7E8FF0446FFF70BFA0346DD
:102C90001B0A03F00703044A52F8233003F01F0312
:102CA00024FA03F3184698BDC064000898B500AF35
:102CB000FFF7D2FF0446FFF701FA0346DB0A03F0F1
:102CC0000703044A52F8233003F01F0324FA03F3E6
:102CD000184698BDC064000890B585B000AF786014
:102CE0007B68B02B03D9154BDB6AFB6007E07B6880
:102CF0001B0903F00F03114A52F82330FB60FFF762
:102D0000C3F903461B0903F00F030D4A52F82330A1
:102D1000FA68B2FBF3F3BB60BB680A4AA2FB032369
:102D20009C0CFEF7F3FE03461946204600F00CF813
:102D3000034618461437BD4690BD00BFE064000846
:102D40008064000883DE1B4390B593B000AF7860C9
:102D50003960394B07F128040FCB84E80F00374A5C
:102D600007F11C0307CA83E80700354B07F10C0481
:102D70000FCB84E80F0000237B643B68B3F5007F32
:102D80001CD100233B6415E03B6C9B0007F148021B
:102D9000134453F8202C7B689A4208D33B6C9B0069
:102DA00007F14802134453F83C3C7B6422E03B6C3F
:102DB00001333B643B6C032BE6D91BE00023FB6330
:102DC00015E0FB6B9B0007F14802134453F82C2CD1
:102DD0007B689A4208D3FB6B9B0007F148021344BF
:102DE00053F83C3C7B6405E0FB6B0133FB63FB6BFE
:102DF000022BE6D91349134B1B6823F007027B6CA7
:102E000013430B60FDF7B8FBB86308E0FDF7B4FBB4
:102E10000246BB6BD31A022B01D9032307E0094BEF
:102E20001B6803F007027B6C9A42EFD1002318461F
:102E30004C37BD4690BD00BF406400085064000898
:102E40005C6400080040005880B400AF4FF0B0430D
:102E5000D3F8903003F00103012B01D1012300E0EE
:102E600000231846BD465DF8047B704780B400AF70
:102E70004FF0B043D3F8903003F00203022B01D19E
:102E8000012300E000231846BD465DF8047B70472F
:102E900080B400AF4FF0B0424FF0B0431B6843F036
:102EA0000403136000BFBD465DF8047B704780B427
:102EB00083B000AF78604FF0B0414FF0B043D3F82B
:102EC000943023F440427B681343C1F8943000BF30
:102ED0000C37BD465DF8047B704780B483B000AF0B
:102EE00078604FF0B0414FF0B0435B6A23F00302CB
:102EF0007B6813434B6200BF0C37BD465DF8047B13
:102F0000704780B483B000AF78604FF0B0414FF0AD
:102F1000B0435B6A23F030027B6813434B6200BF0F
:102F20000C37BD465DF8047B704780B483B000AFBA
:102F300078604FF0B0414FF0B043D3F8883023F0C1
:102F400003027B681343C1F8883000BF0C37BD46CD
:102F50005DF8047B704780B483B000AF78604FF0B9
:102F6000B0414FF0B043D3F8883023F440627B681F
:102F70001343C1F8883000BF0C37BD465DF8047BB1
:102F8000704780B483B000AF78604FF0B0414FF02D
:102F9000B043D3F888207B681B0903F47F23DB430D
:102FA0001A407B681B0103F47F231343C1F8883068
:102FB00000BF0C37BD465DF8047B704780B483B01A
:102FC00000AF78604FF0B0414FF0B043D3F88820A5
:102FD0007B681B0C1B04DB431A407B681B041343F8
:102FE000C1F8883000BF0C37BD465DF8047B7047E0
:102FF00080B483B000AF78604FF0B0414FF0B04381
:10300000D3F8883023F440027B681343C1F888303A
:1030100000BF0C37BD465DF8047B704780B483B0B9
:1030200000AF78604FF0B0414FF0B043D3F8883034
:1030300023F040427B681343C1F8883000BF0C374F
:10304000BD465DF8047B704780B483B000AF786004
:103050004FF0B0414FF0B043D3F8883023F04062D6
:103060007B681343C1F8883000BF0C37BD465DF85C
:10307000047B704780B582B000AF78607868FFF756
:10308000E3FF00BF0837BD4680BD80B483B000AF0A
:1030900078604FF0B0414FF0B043D3F8883023F060
:1030A00040527B681343C1F8883000BF0C37BD46DF
:1030B0005DF8047B704780B483B000AF78604FF058
:1030C000B0414FF0B043D3F8903023F440727B68A6
:1030D0001343C1F8903000BF0C37BD465DF8047B48
:1030E000704780B400AF4FF0B043D3F8903003F492
:1030F00040731846BD465DF8047B704780B400AF4E
:103100004FF0B0424FF0B043D3F8903043F48033E7
:10311000C2F8903000BFBD465DF8047B704780B4B4
:1031200000AF4FF0B0424FF0B043D3F8903023F4EB
:103130008033C2F8903000BFBD465DF8047B704715
:1031400080B400AF4FF0B0424FF0B0431B6843F083
:103150008063136000BFBD465DF8047B704780B498
:1031600000AF4FF0B0424FF0B0431B6823F08063D4
:10317000136000BFBD465DF8047B704780B400AFAC
:103180004FF0B0431B6803F00063B3F1006F01D14F
:10319000012300E000231846BD465DF8047B70471C
:1031A00080B588B000AF78600023FB770023BB7741
:1031B0007B681B6803F04003002B33D07B681B6BDC
:1031C000B3F5800F0CD0B3F5800F02D8002B10D0D0
:1031D00017E0B3F5000F17D0B3F5400F16D010E08D
:1031E0004FF0B0424FF0B043DB6843F48033D3601C
:1031F0000DE07B680433184600F04DF90346FB7779
:1032000005E00123FB7702E000BF00E000BFFB7F89
:10321000002B05D17B681B6B1846FFF7E9FE01E028
:10322000FB7FBB777B681B6803F40063002B46D0F1
:10323000FFF757FFB8617B681A6CBB699A423CD0B4
:10324000FEF754FCBB69002B05D17B681B6C18464C
:10325000FFF731FF2EE04FF0B043D3F890307B61A1
:10326000FFF74CFFFFF75BFF7B6923F440727B683D
:103270001B6C13437B614FF0B0427B69C2F8903006
:10328000FFF7E2FD0346012B14D1FDF775F9386114
:103290000BE0FDF771F902463B69D31A41F288321F
:1032A000934202D90323FB7704E0FFF7DFFD0346D7
:1032B000012BEED1FB7FBB7701E0FB7FBB777B6807
:1032C0001B6803F00103002B04D07B689B69184640
:1032D000FFF72BFE7B681B6803F00203002B04D072
:1032E0007B68DB691846FFF736FE7B681B6803F0D6
:1032F0001003002B04D07B689B6A1846FFF75EFE24
:103300007B681B6803F02003002B04D07B68DB6A1A
:103310001846FFF753FE7B681B6803F00403002B7D
:1033200004D07B681B6A1846FFF72BFE7B681B687E
:1033300003F00803002B04D07B685B6A1846FFF794
:1033400020FE7B681B6803F48073002B22D07B680F
:103350005B6B1846FFF78EFE7B685B6BB3F1006F0B
:1033600007D14FF0B0424FF0B043DB6843F08073B9
:10337000D3607B685B6BB3F1806F0BD17B680433E8
:10338000184600F0E3F80346FB77FB7F002B01D0E3
:10339000FB7FBB777B681B6803F40073002B2BD08B
:1033A0007B689B6BB3F1804F08D07B689B6BB3F15C
:1033B000004F03D07B689B6B002B05D17B689B6B18
:1033C0001846FFF72BFE0AE07B689B6B23F08053C7
:1033D000FB600020FFF722FEF868FFF735FE7B68F0
:1033E0009B6BB3F1C05F07D14FF0B0424FF0B043D9
:1033F000DB6843F08073D3607B681B6803F48063F1
:10340000002B22D07B68DB6B1846FFF73EFE7B6803
:10341000DB6BB3F1005F07D14FF0B0424FF0B04328
:10342000DB6843F48033D3607B68DB6BB3F1805F90
:103430000BD17B680433184600F0E3F80346FB77B2
:10344000FB7F002B01D0FB7FBB777B681B6803F4FD
:103450008053002B04D07B685B6C1846FFF727FD78
:103460007B681B6803F40053002B09D07B68DB6C7E
:103470001846FFF746FD7B689B6C1846FFF72DFD4D
:10348000BB7F18462037BD4680BD80B500AFFFF733
:10349000FFFC00BF80BD80B584B000AF7860002322
:1034A000FB73FFF75CFEFDF767F8B86009E0FDF716
:1034B00063F80246BB68D31A022B02D90323FB73BD
:1034C00004E0FFF75BFE0346002BF0D1FB7B002BF3
:1034D00037D14FF0B0414FF0B0431B6923F4FE42A7
:1034E0007B681B681B0213430B614FF0B0414FF028
:1034F000B0431B6923F478127B685B6813430B614C
:10350000FFF71EFEFDF738F8B86009E0FDF734F864
:103510000246BB68D31A022B02D90323FB7304E0D3
:10352000FFF72CFE0346012BF0D1FB7B002B08D1CB
:103530004FF0B0414FF0B0431A697B681B691343E9
:103540000B61FB7B18461037BD4680BD80B584B04B
:1035500000AF78600023FB73FFF701FEFDF70CF866
:10356000B86009E0FDF708F80246BB68D31A022BE1
:1035700002D90323FB7304E0FFF700FE0346002B90
:10358000F0D1FB7B002B37D14FF0B0414FF0B0436F
:103590001B6923F4FE427B681B681B0213430B610B
:1035A0004FF0B0414FF0B0431B6923F060627B687D
:1035B0009B6813430B61FFF7C3FDFCF7DDFFB860A9
:1035C00009E0FCF7D9FF0246BB68D31A022B02D9E7
:1035D0000323FB7304E0FFF7D1FD0346012BF0D179
:1035E000FB7B002B08D14FF0B0414FF0B0431A697C
:1035F0007B681B6913430B61FB7B18461037BD4684
:1036000080BD80B584B000AF78600023FB73FFF706
:10361000A6FDFCF7B1FFB86009E0FCF7ADFF02467C
:10362000BB68D31A022B02D90323FB7304E0FFF714
:10363000A5FD0346002BF0D1FB7B002B37D14FF0CB
:10364000B0414FF0B0431B6923F4FE427B681B6816
:103650001B0213430B614FF0B0414FF0B0431B69A5
:1036600023F060427B68DB6813430B61FFF768FD62
:10367000FCF782FFB86009E0FCF77EFF0246BB68FA
:10368000D31A022B02D90323FB7304E0FFF776FD64
:103690000346012BF0D1FB7B002B08D14FF0B0414A
:1036A0004FF0B0431A697B681B6913430B61FB7BC6
:1036B00018461037BD4680BD80B584B000AF786035
:1036C0007B68002B01D101237AE07B6800229A629B
:1036D0007B6893F85D30DBB2002B06D17B6800225B
:1036E00083F85C20786802F05BFC7B68022283F838
:1036F0005D207B681B687A681268126822F04002BD
:103700001A607B68DB68B3F5E06F02D90023FB60C9
:1037100002E04FF48053FB607B68DB68B3F5706FA9
:1037200007D07B68DB68B3F5E06F02D07B680022CE
:103730009A627B681B6B002B0BD17B68DB68B3F54F
:10374000E06F03D97B6802221A6302E07B680122E2
:103750001A637B681B687A6851687A6892681143BB
:103760007A68126911437A68526911437A689269DA
:1037700002F4007211437A68D26911437A68126ABE
:1037800011437A68926A0A431A607B681B687A68F8
:103790009269120C02F004017A68526A11437A6845
:1037A000526B11437A68D2681143FA680A435A602F
:1037B0007B6800221A667B68012283F85D20002363
:1037C00018461037BD4680BD80B586B000AFF860A2
:1037D000B9601346FB800023FB75FB6893F85C30EF
:1037E000012B01D10223D0E0FB68012283F85C2089
:1037F000FB6893F85D30DBB2012B02D00223FB752E
:10380000BEE0BB68002B02D0FB88002B02D1012355
:10381000FB75B5E0FB68032283F85D20FB6800229E
:103820001A66FB68BA689A63FB68FA889A87FB682D
:10383000FA88DA87FB6800221A64FB6800221A659E
:10384000FB680022DA64FB680022A3F84420FB68CE
:103850000022A3F84620FB689B68B3F5004F07D110
:10386000FB681B68FA681268126842F480421A60AA
:10387000FB685B6D474A1A63FB685B6D464ADA6218
:10388000FB685B6D454A5A63FB685B6D00229A6377
:10389000FB681B68FA681268526822F480425A601A
:1038A000FB68DB68B3F5E06F2DD8FB685B6D9B6947
:1038B000B3F5806F27D1FB68DB8F9BB203F0010368
:1038C000002B0FD1FB681B68FA681268526822F45B
:1038D00080425A60FB68DB8F9BB25B089AB2FB6840
:1038E000DA8710E0FB681B68FA681268526842F4D5
:1038F00080425A60FB68DB8F9BB25B089BB201334E
:103900009AB2FB68DA87FB68586DFB689B6B1946B7
:10391000FB681B680C331A46FB68DB8F9BB2FDF714
:103920001BF80346002B0CD0FB681B6E43F0100203
:10393000FB681A660123FB75FB68012283F85D2092
:103940001EE0FB681B681B6803F04003402B07D098
:10395000FB681B68FA681268126842F040021A603D
:10396000FB681B68FA681268526842F020025A60CD
:10397000FB681B68FA681268526842F002025A60DB
:10398000FB68002283F85C20FB7D18461837BD4693
:1039900080BD00BF833A0008DD3900089F3A000867
:1039A00080B483B000AF786000BF0C37BD465DF8CF
:1039B000047B704780B483B000AF786000BF0C37E1
:1039C000BD465DF8047B704780B483B000AF78607B
:1039D00000BF0C37BD465DF8047B704780B586B0EC
:1039E00000AF78607B689B6A7B61FCF7C5FD38613E
:1039F0007B681B681B6803F02003202B3BD07B698E
:103A00001B687A691268526822F020025A607B694A
:103A10001B687A691268526822F002025A603A6999
:103A20006421786900F032F90346002B05D07B69E8
:103A30001B6E43F020027B691A667B699B68002B32
:103A40000AD10023FB607B691B68DB68FB607B6934
:103A50001B689B68FB60FB687B690022DA877B69D7
:103A6000012283F85D207B691B6E002B03D07869EF
:103A7000FFF7AAFF02E07869FFF792FF1837BD460B
:103A800080BD80B584B000AF78607B689B6AFB60C6
:103A9000F868FFF78FFF00BF1037BD4680BD80B5C7
:103AA00084B000AF78607B689B6AFB60FB681B6832
:103AB000FA681268526822F003025A60FB681B6EB3
:103AC00043F01002FB681A66FB68012283F85D2050
:103AD000F868FFF779FF00BF1037BD4680BD80B59D
:103AE00084B000AFF860B9603B601346FB714CE0F6
:103AF0003B68B3F1FF3F48D0FCF73EFD0246BB698F
:103B0000D21A3B689A4202D23B68002B3DD1FB6837
:103B10001B68FA681268526822F0E0025A60FB687B
:103B20005B68B3F5827F11D1FB689B68B3F5004FEA
:103B300004D0FB689B68B3F5806F07D1FB681B68F6
:103B4000FA681268126822F040021A60FB689B6AE9
:103B5000B3F5005F0FD1FB681B68FA681268126842
:103B600022F400521A60FB681B68FA681268126837
:103B700042F400521A60FB68012283F85D20FB6862
:103B8000002283F85C2003230FE0FB681B689A681F
:103B9000BB681A40BB689A420CBF01230023DBB20A
:103BA0001A46FB799A42A3D1002318461037BD4626
:103BB00080BD80B584B000AFF860B9607A603B60CA
:103BC00057E0BB68B3F5C06F06D17B68002B03D10B
:103BD000FB681B680C331B783B68B3F1FF3F48D090
:103BE000FCF7CAFC0246BB69D21A3B689A4202D271
:103BF0003B68002B3DD1FB681B68FA68126852686D
:103C000022F0E0025A60FB685B68B3F5827F11D155
:103C1000FB689B68B3F5004F04D0FB689B68B3F565
:103C2000806F07D1FB681B68FA681268126822F07F
:103C300040021A60FB689B6AB3F5005F0FD1FB6816
:103C40001B68FA681268126822F400521A60FB6856
:103C50001B68FA681268126842F400521A60FB6826
:103C6000012283F85D20FB68002283F85C20032397
:103C700008E0FB681B689A68BB681A407B689A4238
:103C80009FD1002318461037BD4680BD80B586B051
:103C900002AFF860B9607A607B680093BB6800226D
:103CA0004FF4C051F868FFF784FF0346002B07D09C
:103CB000FB681B6E43F02002FB681A66032327E0B3
:103CC0007B680093BB6800228021F868FFF707FF3C
:103CD0000346002B07D0FB681B6E43F02002FB68F5
:103CE0001A66032314E07B680093BB6800224FF43C
:103CF000C061F868FFF75DFF0346002B07D0FB6843
:103D00001B6E43F02002FB681A66032300E00023C9
:103D100018461037BD4680BD80B483B000AF7860D0
:103D20004FF0B043D3F888207B68134018460C3717
:103D3000BD465DF8047B704780B483B000AF786007
:103D40004FF0B043D3F888207B68134018460C37F7
:103D5000BD465DF8047B704780B582B000AF7860E7
:103D60007B68002B01D1012342E07B68D3F88030CF
:103D7000002B06D17B68002283F87C20786802F053
:103D80006DF97B682422C3F880207B681B687A6801
:103D90001268126822F001021A60786800F02CF8AC
:103DA0000346012B01D1012322E07B689B6A002B93
:103DB00002D0786801F070F87B681B687A68126836
:103DC000526822F490425A607B681B687A681268D5
:103DD000926822F02A029A607B681B687A681268EF
:103DE000126842F001021A60786801F0F7F80346A1
:103DF00018460837BD4680BD2DE9F0438BB000AFB3
:103E000078600023FB610023FB7600237B617B68E5
:103E10009A687B681B691A437B685B691A437B68F5
:103E2000DB6913437B627B685B6E7A6A13437B6258
:103E30007B681A687B681B681968A44B0B40796A19
:103E40000B4313607B681B687A681268526822F41F
:103E500040517A68D2680A435A607B689B697B62EA
:103E60007B681B689A4A934204D07B681B6A7A6A13
:103E700013437B627B681A687B681B689B6823F02E
:103E80006E4323F43063796A0B4393607B681B684D
:103E90007A681268D26A22F00F017A68526A0A437D
:103EA000DA627B681B688B4A934226D10320FFF7B6
:103EB00033FF0346032B1BD801A252F823F000BFA7
:103EC000D13E0008E13E0008D93E0008E93E000866
:103ED000012387F8233042E0022387F823303EE0B5
:103EE000042387F823303AE0082387F8233036E0AC
:103EF000102387F8233000BF31E07B681B68744AC9
:103F0000934229D14FF44060FFF716FF0346B3F503
:103F1000806F14D0B3F5806F02D8002B07D016E065
:103F2000B3F5006F07D0B3F5406F0CD00FE000235E
:103F300087F8233013E0022387F823300FE00423AF
:103F400087F823300BE0082387F8233007E010239D
:103F500087F8233000BF02E0102387F823307B6806
:103F60001B685B4A934240F0138497F82330082B78
:103F700000F2738101A252F823F000BFA13F0008B4
:103F80005B420008434000085B4200080B41000808
:103F90005B4200085B4200085B420008AD4100083C
:103FA000FEF76EFE02467B685B6A002B44D07B689E
:103FB0005B6A012B3ED07B685B6A022B38D07B6842
:103FC0005B6A032B32D07B685B6A042B2CD07B6846
:103FD0005B6A052B26D07B685B6A062B20D07B684A
:103FE0005B6A072B1AD07B685B6A082B14D07B684E
:103FF0005B6A092B0ED07B685B6A0A2B08D07B6852
:104000005B6A0B2B02D14FF4807316E0012314E09E
:10401000802312E0402310E020230EE010230CE068
:104020000C230AE00A2308E0082306E0062304E044
:10403000042302E0022300E00123B2FBF3F37B61DF
:104040000EE17B685B6A002B5CD07B685B6A012BAE
:1040500056D07B685B6A022B50D07B685B6A032B6F
:1040600032D07B685B6A042B2CD07B685B6A052BA3
:1040700026D07B685B6A062B20D07B685B6A072BA7
:104080001AD07B685B6A082B14D07B685B6A092BAB
:104090000ED07B685B6A0A2B08D07B685B6A0B2BAF
:1040A00002D14FF224432EE00B4B2CE00B4B2AE0C5
:1040B0000B4B28E00B4B26E00B4B24E00B4B22E094
:1040C0000B4B20E00B4B1EE00B4B1CE0F369FFCFCA
:1040D00000800040003801400024F40048E801005E
:1040E00090D0030020A1070040420F005558140053
:1040F000006A180080841E00AAB02800A74B02E0C6
:10410000A74B00E0A74B7B61AAE0FEF73BFD024610
:104110007B685B6A002B44D07B685B6A012B3ED0D6
:104120007B685B6A022B38D07B685B6A032B32D0DA
:104130007B685B6A042B2CD07B685B6A052B26D0DE
:104140007B685B6A062B20D07B685B6A072B1AD0E2
:104150007B685B6A082B14D07B685B6A092B0ED0E6
:104160007B685B6A0A2B08D07B685B6A0B2B02D1E9
:104170004FF4807316E0012314E0802312E0402303
:1041800010E020230EE010230CE00C230AE00A23A9
:1041900008E0082306E0062304E0042302E00223EB
:1041A00000E00123B2FBF3F37B6159E07B685B6ABB
:1041B000002B4ED07B685B6A012B47D07B685B6A23
:1041C000022B40D07B685B6A032B39D07B685B6A2B
:1041D000042B32D07B685B6A052B2BD07B685B6A33
:1041E000062B24D07B685B6A072B1DD07B685B6A3B
:1041F000082B16D07B685B6A092B0FD07B685B6A43
:104200000A2B08D07B685B6A0B2B01D1802322E04C
:104210004FF400431FE04FF480731CE04FF4007331
:1042200019E04FF4806316E04FF4006313E040F6AA
:10423000AA2310E040F6CC430DE04FF480530AE08F
:1042400041F2555307E04FF4005304E04FF480432C
:1042500001E04FF400437B6102E00123FB7600BFE5
:104260007B69002B00F0EE857B685A6813465B0083
:104270001A447B699A4205D87B685B681A037B699C
:104280009A4203D20123FB7600F0DCBD97F823307D
:10429000082B00F26A8201A252F823F0C142000802
:1042A0006B470008FD4300086B470008ED44000819
:1042B0006B4700086B4700086B470008174600086B
:1042C000FEF7DEFC38613B6918464FF000017B6861
:1042D0005B6A002B6DD07B685B6A012B64D07B68C6
:1042E0005B6A022B55D07B685B6A032B4CD07B68E2
:1042F0005B6A042B43D07B685B6A052B3AD07B68F2
:104300005B6A062B31D07B685B6A072B28D07B6801
:104310005B6A082B1FD07B685B6A092B16D07B6811
:104320005B6A0A2B0DD07B685B6A0B2B04D14FF4C0
:1043300080734FF0000440E04FF001034FF00004A1
:104340003BE04FF080034FF0000436E04FF04003B5
:104350004FF0000431E04FF020034FF000042CE058
:104360004FF010034FF0000427E04FF00C034FF024
:10437000000422E04FF00A034FF000041DE04FF06C
:1043800008034FF0000418E04FF006034FF000045C
:1043900013E04FF004034FF000040EE000093D006D
:1043A00000127A000024F4004FF002034FF00004E2
:1043B00003E04FF001034FF000041A462346FBF7D9
:1043C000E7FE03460C464FEA042949EA13694FEA1F
:1043D00003287B685B685B084FF0000418EB030060
:1043E00049EB04017B685B684FF000041A462346E2
:1043F000FBF7CEFE03460C46FB61B9E17B685B6AC6
:10440000002B59D07B685B6A012B51D07B685B6ABB
:10441000022B49D07B685B6A032B42D07B685B6AC6
:10442000042B3AD07B685B6A052B32D07B685B6AD1
:10443000062B2BD07B685B6A072B23D07B685B6ADB
:10444000082B1BD07B685B6A092B13D07B685B6AE7
:104450000A2B0BD07B685B6A0B2B03D1A84B4FF068
:1044600000042CE0A74B4FF0000428E0A64B4FF0CF
:10447000000424E0A54B4FF0000420E0A44B4FF0D3
:1044800000041CE0A34B4FF0000418E098A418CCE3
:1044900015E0A14B4FF0000411E0A04B4FF00004D9
:1044A0000DE095A418CC0AE09D4B4FF0000406E007
:1044B0009C4B4FF0000402E0924B4FF000047A68EE
:1044C0005268520811464FF000025D1844EB020694
:1044D000284631467B685B684FF000041A46234645
:1044E000FBF756FE03460C46FB6141E1FEF74AFB33
:1044F00038613B6918464FF000017B685B6A002B0E
:1045000067D07B685B6A012B5ED07B685B6A022B9D
:1045100055D07B685B6A032B4CD07B685B6A042BAD
:1045200043D07B685B6A052B3AD07B685B6A062BBD
:1045300031D07B685B6A072B28D07B685B6A082BCD
:104540001FD07B685B6A092B16D07B685B6A0A2BDD
:104550000DD07B685B6A0B2B04D14FF480734FF056
:1045600000043AE04FF001034FF0000435E04FF053
:1045700080034FF0000430E04FF040034FF00004A0
:104580002BE04FF020034FF0000426E04FF0100323
:104590004FF0000421E04FF00C034FF000041CE04A
:1045A0004FF00A034FF0000417E04FF008034FF0FC
:1045B000000412E04FF006034FF000040DE04FF04E
:1045C00004034FF0000408E04FF002034FF0000432
:1045D00003E04FF001034FF000041A462346FBF7B7
:1045E000D7FD03460C46260246EA13661D027B6889
:1045F0005B685B084FF00004E81846EB04017B6839
:104600005B684FF000041A462346FBF7C1FD0346E2
:104610000C46FB61ACE07B685B6A002B00F08A8093
:104620007B685B6A012B5BD07B685B6A022B52D094
:104630007B685B6A032B4AD07B685B6A042B41D0A2
:104640007B685B6A052B39D07B685B6A062B31D0AF
:104650007B685B6A072B28D07B685B6A082B1FD0BE
:104660007B685B6A092B16D07B685B6A0A2B0DD0CE
:104670007B685B6A0B2B04D14FF400434FF00004BE
:104680005CE04FF400034FF0000457E04FF4803338
:104690004FF0000452E04FF400334FF000044DE0BF
:1046A0004FF480234FF0000448E04FF400234FF014
:1046B000000443E01C4B4FF000043FE01B4B4FF065
:1046C00000043BE04FF480134FF0000436E0184B39
:1046D0004FF0000432E04FF400134FF000042DE0DF
:1046E0004FF480034FF0000428E000BFAFF30080D8
:1046F000005558140000000000AAB0280000000077
:104700000024F400000024F40048E8010090D003E5
:104710000020A1070040420F00006A180080841E9C
:104720000000093D0000127A00AA0A0000CC0C002B
:10473000005515004FF400034FF000047A685268EA
:10474000520811464FF000025D1844EB020628465D
:1047500031467B685B684FF000041A462346FBF73E
:1047600017FD03460C46FB6102E00123FB7600BF08
:10477000FB69B3F5407F08D3FB69B3F5801F04D212
:104780007B681B68FA69DA605CE30123FB7659E316
:104790007B68DB69B3F5004F40F0A78197F82330C1
:1047A000013B072B00F2818101A252F823F000BFE8
:1047B000D147000889480008AB4A00083149000881
:1047C000AB4A0008AB4A0008AB4A0008E9490008B8
:1047D000FEF76CFA38617B685B6A002B44D07B681B
:1047E0005B6A012B3ED07B685B6A022B38D07B680A
:1047F0005B6A032B32D07B685B6A042B2CD07B680E
:104800005B6A052B26D07B685B6A062B20D07B6811
:104810005B6A072B1AD07B685B6A082B14D07B6815
:104820005B6A092B0ED07B685B6A0A2B08D07B6819
:104830005B6A0B2B02D14FF4807316E0012314E066
:10484000802312E0402310E020230EE010230CE030
:104850000C230AE00A2308E0082306E0062304E00C
:10486000042302E0022300E001233A69B2FBF3F3E0
:104870005A007B685B685B081A447B685B68B2FB24
:10488000F3F39BB2FB6113E17B685B6A002B43D0BF
:104890007B685B6A012B3DD07B685B6A022B37D05B
:1048A0007B685B6A032B31D07B685B6A042B2BD05F
:1048B0007B685B6A052B25D07B685B6A062B1FD063
:1048C0007B685B6A072B19D07B685B6A082B13D067
:1048D0007B685B6A092B0DD07B685B6A0A2B07D06B
:1048E0007B685B6A0B2B01D18C4B16E08C4B14E080
:1048F0008C4B12E08C4B10E08C4B0EE08C4B0CE0A0
:104900008C4B0AE08C4B08E08C4B06E08C4B04E0AF
:104910008C4B02E08C4B00E0814B7A685268520865
:104920001A447B685B68B2FBF3F39BB2FB61BFE0A8
:10493000FEF728F938617B685B6A002B44D07B68FE
:104940005B6A012B3ED07B685B6A022B38D07B68A8
:104950005B6A032B32D07B685B6A042B2CD07B68AC
:104960005B6A052B26D07B685B6A062B20D07B68B0
:104970005B6A072B1AD07B685B6A082B14D07B68B4
:104980005B6A092B0ED07B685B6A0A2B08D07B68B8
:104990005B6A0B2B02D14FF4807316E0012314E005
:1049A000802312E0402310E020230EE010230CE0CF
:1049B0000C230AE00A2308E0082306E0062304E0AB
:1049C000042302E0022300E001233A69B2FBF3F37F
:1049D0005A007B685B685B081A447B685B68B2FBC3
:1049E000F3F39BB2FB6163E07B685B6A002B4FD003
:1049F0007B685B6A012B48D07B685B6A022B41D0E5
:104A00007B685B6A032B3AD07B685B6A042B33D0EC
:104A10007B685B6A052B2CD07B685B6A062B25D0F4
:104A20007B685B6A072B1ED07B685B6A082B17D0FC
:104A30007B685B6A092B10D07B685B6A0A2B09D004
:104A40007B685B6A0B2B02D14FF4807322E04FF43A
:104A500080331FE04FF400731CE04FF4806319E0D3
:104A60004FF4006316E04FF4805313E041F25453C7
:104A700010E041F698130DE04FF400530AE042F6BF
:104A8000AA2307E04FF4804304E04FF4004301E021
:104A90004FF480337A68526852081A447B685B6826
:104AA000B2FBF3F39BB2FB6102E00123FB7600BF94
:104AB000FB690F2B16D9FB69B3F5803F12D2FB6956
:104AC0009BB223F00F03FB81FB695B089BB203F0F1
:104AD00007039AB2FB891343FB817B681B68FA8941
:104AE000DA60AFE10123FB76ACE197F82330013BBC
:104AF000072B00F2968101A252F823F04D4B0008DB
:104B0000034C0008234E0008AD4C0008234E00085B
:104B1000234E0008234E0008634D000848E80100BA
:104B20000048E80190D0030020A1070040420F0098
:104B300080841E00AAB0280000D4300000093D0087
:104B40005461510000127A000024F400FEF7AEF820
:104B500038617B685B6A002B44D07B685B6A012B01
:104B60003ED07B685B6A022B38D07B685B6A032B84
:104B700032D07B685B6A042B2CD07B685B6A052B88
:104B800026D07B685B6A062B20D07B685B6A072B8C
:104B90001AD07B685B6A082B14D07B685B6A092B90
:104BA0000ED07B685B6A0A2B08D07B685B6A0B2B94
:104BB00002D14FF4807316E0012314E0802312E049
:104BC000402310E020230EE010230CE00C230AE029
:104BD0000A2308E0082306E0062304E0042302E099
:104BE000022300E001233A69B2FBF3F27B685B68C1
:104BF0005B081A447B685B68B2FBF3F39BB2FB6112
:104C000012E17B685B6A002B44D07B685B6A012BF6
:104C10003ED07B685B6A022B38D07B685B6A032BD3
:104C200032D07B685B6A042B2CD07B685B6A052BD7
:104C300026D07B685B6A062B20D07B685B6A072BDB
:104C40001AD07B685B6A082B14D07B685B6A092BDF
:104C50000ED07B685B6A0A2B08D07B685B6A0B2BE3
:104C600002D14FF2244316E0804B14E0804B12E057
:104C7000804B10E0804B0EE0804B0CE0804B0AE054
:104C8000804B08E0804B06E0804B04E0804B02E064
:104C9000804B00E0754B7A68526852081A447B6872
:104CA0005B68B2FBF3F39BB2FB61BDE0FDF76AFF0B
:104CB00038617B685B6A002B44D07B685B6A012BA0
:104CC0003ED07B685B6A022B38D07B685B6A032B23
:104CD00032D07B685B6A042B2CD07B685B6A052B27
:104CE00026D07B685B6A062B20D07B685B6A072B2B
:104CF0001AD07B685B6A082B14D07B685B6A092B2F
:104D00000ED07B685B6A0A2B08D07B685B6A0B2B32
:104D100002D14FF4807316E0012314E0802312E0E7
:104D2000402310E020230EE010230CE00C230AE0C7
:104D30000A2308E0082306E0062304E0042302E037
:104D4000022300E001233A69B2FBF3F27B685B685F
:104D50005B081A447B685B68B2FBF3F39BB2FB61B0
:104D600062E07B685B6A002B4ED07B685B6A012B3C
:104D700047D07B685B6A022B40D07B685B6A032B61
:104D800039D07B685B6A042B32D07B685B6A052B69
:104D90002BD07B685B6A062B24D07B685B6A072B71
:104DA0001DD07B685B6A082B16D07B685B6A092B79
:104DB0000FD07B685B6A0A2B08D07B685B6A0B2B81
:104DC00001D1802322E04FF400431FE04FF48073B1
:104DD0001CE04FF4007319E04FF4806316E04FF4C9
:104DE000006313E040F6AA2310E040F6CC430DE048
:104DF0004FF480530AE041F2555307E04FF400535B
:104E000004E04FF4804301E04FF400437A685268B5
:104E100052081A447B685B68B2FBF3F39BB2FB61F8
:104E200002E00123FB7600BFFB690F2B08D9FB6969
:104E3000B3F5803F04D27B681B68FA69DA6001E051
:104E40000123FB767B680122A3F86A207B6801229C
:104E5000A3F868207B680022DA667B6800221A6764
:104E6000FB7E18462C37BD46BDE8F0830024F400D5
:104E700048E8010090D0030020A1070040420F0045
:104E800055581400006A180080841E00AAB028003B
:104E900000093D0000127A0080B483B000AF786052
:104EA0007B689B6A03F00103002B0AD07B681B68B8
:104EB0007A681268526822F400317A68D26A0A432A
:104EC0005A607B689B6A03F00203002B0AD07B6860
:104ED0001B687A681268526822F480317A68126B13
:104EE0000A435A607B689B6A03F00403002B0AD0D4
:104EF0007B681B687A681268526822F480217A689D
:104F0000526B0A435A607B689B6A03F00803002BCC
:104F10000AD07B681B687A681268526822F40041E4
:104F20007A68926B0A435A607B689B6A03F01003AD
:104F3000002B0AD07B681B687A681268926822F49A
:104F400080517A68D26B0A439A607B689B6A03F04F
:104F50002003002B0AD07B681B687A68126892686D
:104F600022F400517A68126C0A439A607B689B6A4B
:104F700003F04003002B1AD07B681B687A68126824
:104F8000526822F480117A68526C0A435A607B6836
:104F90005B6CB3F5801F0AD17B681B687A68126866
:104FA000526822F4C0017A68926C0A435A607B68A6
:104FB0009B6A03F08003002B0AD07B681B687A6829
:104FC0001268526822F400217A68D26C0A435A604F
:104FD00000BF0C37BD465DF8047B704780B586B0D6
:104FE00002AF78607B680022C3F88820FBF7C4FA20
:104FF000F8607B681B681B6803F00803082B0ED160
:105000006FF07E430093FB6800224FF40011786834
:1050100000F02CF80346002B01D0032322E07B682C
:105020001B681B6803F00403042B0ED16FF07E4352
:105030000093FB6800224FF48001786800F016F8B6
:105040000346002B01D003230CE07B682022C3F829
:1050500080207B682022C3F884207B68002283F8AC
:105060007C20002318461037BD4680BD80B584B033
:1050700000AFF860B9603B601346FB7162E0BB694A
:10508000B3F1FF3F5ED0FBF777FA02463B68D21AD6
:10509000BB699A4202D8BB69002B1DD1FB681B6813
:1050A000FA681268126822F4D0721A60FB681B68F2
:1050B000FA681268926822F001029A60FB68202266
:1050C000C3F88020FB682022C3F88420FB680022FC
:1050D00083F87C20032345E0FB681B681B6803F012
:1050E0000403002B2ED0FB681B68DB6903F400630C
:1050F000B3F5006F26D1FB681B684FF400621A629B
:10510000FB681B68FA681268126822F4D0721A6091
:10511000FB681B68FA681268926822F001029A60C4
:10512000FB682022C3F88020FB682022C3F884207B
:10513000FB682022C3F88820FB68002283F87C20CB
:1051400003230FE0FB681B68DA69BB681A40BB6881
:105150009A420CBF01230023DBB21A46FB799A4224
:105160008DD0002318461037BD4680BD80B485B071
:1051700000AF78607B6893F87C30012B01D102236B
:1051800027E07B68012283F87C207B682422C3F817
:1051900080207B681B681B68FB607B681B687A68E3
:1051A0001268126822F001021A60FB6823F00053B3
:1051B000FB607B6800225A667B681B68FA681A608D
:1051C0007B682022C3F880207B68002283F87C2043
:1051D000002318461437BD465DF8047B704780B540
:1051E00084B000AF786039607B6893F87C30012B25
:1051F00001D102232DE07B68012283F87C207B68AB
:105200002422C3F880207B681B681B68FB607B68D6
:105210001B687A681268126822F001021A607B68C3
:105220001B687A681268926822F060413A680A4303
:105230009A60786800F050F87B681B68FA681A601A
:105240007B682022C3F880207B68002283F87C20C2
:10525000002318461037BD4680BD80B584B000AF2E
:10526000786039607B6893F87C30012B01D1022390
:105270002DE07B68012283F87C207B682422C3F820
:1052800080207B681B681B68FB607B681B687A68F2
:105290001268126822F001021A607B681B687A6843
:1052A0001268926822F060613A680A439A607868EE
:1052B00000F012F87B681B68FA681A607B6820228D
:1052C000C3F880207B68002283F87C2000231846E6
:1052D0001037BD4680BD000080B489B000AF786053
:1052E0002F4A07F1140392E8030083E803002D4AD4
:1052F00007F10C0392E8030083E803007B685B6E10
:10530000002B08D17B680122A3F86A207B68012268
:10531000A3F868203DE00823FB770823BB777B6870
:105320001B689B685B0EDBB203F007037B777B682F
:105330001B689B685B0FDBB203F007033B77BB7F07
:105340003A7F07F120010A4412F80C2C02FB03F308
:105350003A7F07F120010A4412F8142C93FBF2F370
:105360009AB27B68A3F86A20FB7F7A7F07F120015D
:105370000A4412F80C2C02FB03F37A7F07F1200198
:105380000A4412F8142C93FBF2F39AB27B68A3F848
:10539000682000BF2437BD465DF8047B704700BF1E
:1053A0006C6400087464000880B485B000AF786055
:1053B0004BF68073FB817B68B3F840309AB2FB896F
:1053C00013439AB27B68A3F8402000231846143791
:1053D000BD465DF8047B704780B485B000AF78604F
:1053E0004BF68073FB817B68B3F840309BB21AB2F6
:1053F000B7F90E30DB431BB213401BB29AB27B6885
:10540000A3F84020002318461437BD465DF8047BFE
:10541000704784B080B582B000AF786007F11400A7
:1054200080E80E007B680122A3F840207B68002200
:10543000A3F840207B680022A3F844207B68002268
:10544000A3F850207868FFF7AFFF0023184608370D
:10545000BD46BDE8804004B07047000090B587B0FD
:1054600000AF78607A6813465B0013445B003B61D1
:105470007A6813465B001344FB603B695A1D12496E
:105480007B6841F8232000237B6116E03A697B6941
:10549000D0180E4AFB6813441B781946FB68013389
:1054A0000A4AD35C1C46FB680233084AD35C224696
:1054B00000F036F87B6901337B617B69052BE5DD04
:1054C00000BF1C37BD4690BD180000200C00002016
:1054D00080B584B000AF7860104A7B6852F8233002
:1054E000FB607A6813465B0013445B001A46FB6856
:1054F0009A420EDA002300220021F86800F010F82A
:10550000064A7B6852F823305A1E04497B6841F8EA
:10551000232000BF1037BD4680BD00BF180000200B
:1055200080B48BB000AFF860B9607A603B60FA6815
:1055300013465B0013449B0002337B627B681A04B2
:10554000BB681B021A443B6813443B620123FB61A6
:105550000023FB7600237B6128E03B6ADB1503F028
:1055600001033B61FB69002B07D03B69002B01D194
:10557000802300E0C023FB760EE03B69002B01D1C5
:10558000082200E00C22FB7E1344FB767B6A5A1C47
:105590007A620B49FA7ECA54FB69C3F10103FB61CD
:1055A0003B6A5B003B627B6901337B617B69172B44
:1055B000D3DD00BF2C37BD465DF8047B704700BFCC
:1055C0009401002080B582B000AF00237B6008E02A
:1055D0000023002200217868FFF7A2FF7B680133D7
:1055E0007B607B68172BF3DD00BF0837BD4680BDAD
:1055F00080B582B000AF78604FF491720549786849
:10560000FEF7E2F80120FAF7CFFF00BF0837BD46EA
:1056100080BD00BF9401002080B483B000AF7860EB
:105620004FF0B0414FF0B043D3F8903023F0180260
:105630007B681343C1F8903000BF0C37BD465DF85E
:10564000047B704780B485B000AF78604FF0B04104
:105650004FF0B0439A6C7B6813438B644FF0B043B8
:105660009A6C7B681340FB60FB6800BF1437BD4633
:105670005DF8047B704780B485B000AF78604FF070
:10568000B0414FF0B043DA6C7B681343CB644FF00A
:10569000B043DA6C7B681340FB60FB6800BF1437D3
:1056A000BD465DF8047B704780B584B000AF102321
:1056B000BB6018237B600023FB602FE000230022E7
:1056C000B968F868FFF72CFFFB68181D0023BA685B
:1056D0000021FFF725FFFB6803F108007B6800222B
:1056E0000021FFF71DFFFB6803F10C00BB680022DF
:1056F000B968FFF715FFFB6803F11000BB68BA68D3
:105700000021FFF70DFFFB6803F114000023BA68C6
:10571000B968FFF705FFFB680133FB60FB68032BEB
:10572000CCDD00BF1037BD4680BD000080B584B021
:1057300000AF194B1B687B60184B1A68184B83FB32
:1057400002139910D317C91A0B469B000B445B0038
:10575000D31AFB60134B1A68114B83FB0213991089
:10576000D317C91A0B469B000B445B00D31ABB60CE
:10577000FB68DBB23033DBB23B71BB68DBB230338A
:10578000DBB2FB713B1D1A467021074800F040FB5D
:1057900000BF1037BD4680BD7C640008B802002001
:1057A00067666666BC020020C802002080B586B02D
:1057B00000AFFAF775FE00F07DF800F029FA00F06E
:1057C00015FA00F09DF900F0E9F900F01BF900F07E
:1057D00059F97021314800F06AFAFFF7A7FFFFF787
:1057E000F1FEFFF761FF2E48FFF702FF0223BB60C7
:1057F0008C22BB6892FBF3F37B6000237B6112E099
:105800007B681846FAF7D0FE00233B6105E0386953
:10581000FFF75EFE3B6901333B613B69032BF6DD1D
:105820007B6901337B617A69BB689A42E8DB0023BC
:10583000FB600EE01B4B1A68FB6813441A4A52F8CF
:105840002330002B02DDF868FFF708FEFB68013308
:10585000FB60FB68032BEDDD124B1B680433114A20
:105860001360104B1B684F2B02D90E4B00221A609D
:105870000B48FFF7BDFE0D4B1B68591C0C4B83FBFF
:1058800001239A10CB17D21A13469B0013445B00D6
:10589000CA1A064B1A60FFF749FFAEE7C80200209C
:1058A000A0030020C002002028000020B802002031
:1058B0006766666680B5AEB000AF07F17003482238
:1058C0000021184600F0A8FD07F1540300221A60D9
:1058D0005A609A60DA601A615A619A613B1D5022DF
:1058E0000021184600F098FD4FF0B0424FF0B04351
:1058F000DB6823F07003D3604FF0B0424FF0B04349
:10590000DB6823F0030343F00103D3600020FFF7BB
:1059100083FE3B4A3A4B1B6823F4C06343F4007395
:105920001360374B1B6803F4C0633B603B6827235D
:105930003B674FF480337B670123BB674FF4807371
:10594000FB670123C7F88C304023C7F88030002361
:10595000C7F890306023C7F894300023C7F89C3014
:1059600007F170031846FCF773FC0346002B01D0C7
:1059700000F096F96F237B650223BB650023FB656E
:1059800000233B6600237B660023BB660023FB6687
:1059900007F1540301211846FCF7B8FF0346002B1A
:1059A00001D000F07DF942F205137B601823BB6043
:1059B0004FF40033FB604FF000733B614FF0005336
:1059C0007B614FF08073BB610023FB614FF4403378
:1059D0007B624FF08063BB630023FB6410233B6555
:1059E0003B1D1846FDF7DCFB0346002B01D000F001
:1059F00057F9FDF74AFD00BFB837BD4680BD00BF6F
:105A00000004005880B500AF1B4B1C4A1A601A4BAB
:105A10001B4A5A60184B00229A60174B0122DA6029
:105A2000154B00221A61144B00225A61124B0022BE
:105A30009A61114B0022DA610F4B00221A620E4864
:105A4000FBF7DCFA0346002B01D000F029F9002116
:105A50000948FBF7CFFE0346002B01D000F020F9E8
:105A600000210548FBF711FF0346002B01D000F091
:105A700017F900BF80BD00BFC802002000540040DD
:105A8000BB7C700080B500AF1B4B1C4A1A601A4BE0
:105A90004FF482725A60184B00229A60164B4FF4F2
:105AA000E062DA60144B00221A61134B01225A6142
:105AB000114B4FF400729A610F4B1022DA610E4BBA
:105AC00000221A620C4B00225A620B4B00229A628F
:105AD000094B0722DA62084B00221A63064B0022A8
