:020000040800F2
:100000000000032021360008ED340008EF3400081A
:10001000F1340008F3340008F53400080000000053
:10002000000000000000000000000000F73400089D
:10003000F934000800000000FB340008FD3400081B
:1000400071360008713600087136000871360008F4
:1000500071360008713600087136000871360008E4
:100060007136000871360008713600080135000845
:1000700071360008713600087136000871360008C4
:1000800071360008713600087136000871360008B4
:1000900071360008713600087136000871360008A4
:1000A0007136000871360008713600087136000894
:1000B0007136000871360008713600087136000884
:1000C0007136000871360008713600087136000874
:1000D0007136000871360008713600087136000864
:1000E0007136000871360008713600087136000854
:1000F0007136000871360008713600087136000844
:100100007136000871360008713600087136000833
:100110007136000871360008713600087136000823
:100120007136000871360008713600087136000813
:0C013000713600087136000871360008B6
:1001400010B5054C237833B9044B13B10448AFF311
:1001500000800123237010BD1C000020000000005F
:10016000CC36000808B5034B1BB103490348AFF375
:10017000008008BD0000000020000020CC360008F0
:10018000034613F8012B002AFBD1181A01387047D7
:1001900053B94AB9002908BF00281CBF4FF0FF31EE
:1001A0004FF0FF3000F07AB9ADF1080C6DE904CEE4
:1001B00000F006F8DDF804E0DDE9022304B0704742
:1001C0002DE9F0478C460D460446089E002B51D180
:1001D0008A4217466DD9B2FA82FEBEF1000F0BD0EB
:1001E000CEF1200C01FA0EF520FA0CFC02FA0EF703
:1001F0004CEA050C00FA0EF44FEA174A250CBCFB3A
:10020000FAF81FFA87F90AFB18CC45EA0C4508FBF7
:1002100009F3AB420AD9ED1908F1FF3280F02381CE
:10022000AB4240F22081A8F102083D44ED1AA4B28D
:10023000B5FBFAF00AFB105544EA054400FB09F946
:10024000A14509D9E41900F1FF3380F00A81A145E5
:1002500040F2078102383C44A4EB090440EA08401C
:100260000021002E61D024FA0EF400233460736064
:10027000BDE8F0878B4207D9002E54D0002186E8D4
:1002800021000846BDE8F087B3FA83F1002940F069
:100290008E80AB4202D3824200F2FA80841A65EB70
:1002A00003050120AC46002E3FD086E81010BDE8C3
:1002B000F08712B90127B7FBF2F7B7FA87FEBEF154
:1002C000000F34D1EB1B3A0C1FFA87FC0121B3FB62
:1002D000F2F8250C02FB183345EA03450CFB08F342
:1002E000AB4207D9ED1908F1FF3002D2AB4200F260
:1002F000D1808046ED1AA3B2B5FBF2F002FB105597
:1003000043EA05440CFB00FCA44507D9E41900F1BD
:10031000FF3302D2A44500F2B8801846A4EB0C04C7
:1003200040EA08409DE731463046BDE8F087CEF10F
:10033000200405FA0EF307FA0EF720FA04F83A0C37
:1003400025FA04F448EA0308B4FBF2F14FEA184531
:1003500002FB11441FFA87FC45EA044501FB0CF33C
:10036000AB4200FA0EF409D9ED1901F1FF3080F02B
:100370008A80AB4240F2878002393D44EB1A1FFA73
:1003800088F5B3FBF2F002FB103345EA034500FBAE
:100390000CF3AB4207D9ED1900F1FF386FD2AB4235
:1003A0006DD902383D44EB1A40EA01418FE7C1F1B3
:1003B000200722FA07F88B4005FA01F448EA030304
:1003C00020FA07FE4FEA134CFD404EEA040EB5FB3F
:1003D000FCF94FEA1E440CFB19551FFA83F844EA56
:1003E000054509FB08F4AC4202FA01F200FA01FAF1
:1003F00008D9ED1809F1FF3043D2AC4241D9A9F137
:1004000002091D442D1B1FFA8EFEB5FBFCF00CFBF0
:1004100010554EEA054400FB08F8A04507D9E4183A
:1004200000F1FF3529D2A04527D902381C4440EA03
:100430000940A4EB0804A0FB02894C45C6464D4682
:1004400015D312D056B1BAEB0E0364EB050404FACF
:1004500007F7CB401F43CC40376074600021BDE8F4
:10046000F0871846F8E69046E0E6C245EAD2B8EBD7
:10047000020E69EB03050138E4E72846D7E740465A
:1004800091E78146BEE7014678E702383C4445E7FC
:10049000084608E7A8F102083D442BE7704700BF73
:1004A00038B5104C236805460BB9012038BD01F062
:1004B00097FA22684FF47A73B3FBF2F3B0FBF3F0D0
:1004C00000F0AAF804460028EFD10F2DEDD802461F
:1004D00029464FF0FF3000F05DF8034B20461D60C9
:1004E00038BD00BF0400002008000020094A13683E
:1004F00043F4807310B50320136000F039F8002036
:10050000FFF7CEFF044618B902F01AFF204610BDCF
:100510000124FBE700400058034A044913680968B6
:100520000B441360704700BF6401002004000020EA
:10053000014B1868704700BF64010020014B186828
:10054000704700BF0800002038B50446FFF7F0FFF1
:10055000631C1CBF054B1B68054618BFE418FFF75A
:10056000E7FF401B8442FAD838BD00BF04000020DA
:10057000074AD36823F4E0631B041B0C43F0BF63FA
:10058000000243F4003300F4E0600343D36070479B
:1005900000ED00E0174B30B5DC68C4F30224C4F171
:1005A0000703251D042B28BF0423062D4FF001054A
:1005B00005FA03F303F1FF338CBF033C0024194019
:1005C000A14005FA04F4013C2240002842EA01025D
:1005D0004FEA0212ADBF00F1604000F00F00064B81
:1005E00000F56140B5BFD2B2D2B21A5480F80023F0
:1005F00030BD00BF00ED00E014ED00E0002808DB96
:100600004209012300F01F0003FA00F0014B43F8F8
:100610002200704700E100E00138B0F1807F0AD28B
:10062000064B074A5860F02182F823100020072269
:1006300098601A6070470120704700BF10E000E02A
:1006400000ED00E070B5C46C056D6560446D14B1DB
:10065000846DC56D6560446C066C04F01C05012456
:10066000AC407460046863608368102B0BBFA260A9
:10067000A160E160E26070BD0368104A9342426C81
:1006800088BF0F4922F003029BBF02F1804202F5AE
:10069000023289188264DBB20A4AC264A3F10803F9
:1006A0004FF01402B3FBF2F34FF0010203F01C030E
:1006B00002FA03F388BF81640365704707040240B0
:1006C0001C0802408008024010B5044600285DD096
:1006D00001682F4B99424FF014004AD82D4A0A4422
:1006E000B2FBF0F292006264A3F207432364022398
:1006F00084F82530E068A3680A680343206903434F
:1007000060690343A0690343E0690343206A22F45C
:10071000FF4222F07002034313430B602046FFF7B1
:10072000ABFFA368A16C206DB3F5804F04BF00231D
:1007300063606268D3B20B60013AE16C032A4860DF
:100740001FD8154A1548A0651A44013B92000121A3
:1007500003F0030301FA03F300216265E36511600E
:10076000436000200123E06384F8240084F82530EE
:1007700010BD0B4B0B44B3FBF0F39B006364094BC0
:10078000B4E700236365A365E365EAE7012010BDD4
:1007900007040240F8FFFDBF3F82001040090240FD
:1007A000F8FBFDBF0004024070B590F82450012D05
:1007B000044639D0012580F8245090F82550012DA9
:1007C0004FF000064FF002052CD180F82550C6638B
:1007D0000668356825F001053560FFF733FF026BC9
:1007E0000368BAB11A6842F00E021A60A26C11686E
:1007F000C90342BF116841F480711160626D1AB182
:10080000116841F4807111601A6842F001021A60A7
:10081000002070BD1A6822F004021A601A6842F0C3
:100820000A02E2E780F82460022070BD016C426C8D
:10083000036870B402F01C020E681D680424944022
:1008400026420ED015F0040F0BD01A6892065EBF38
:100850001A6822F004021A60036B4C6073B370BC18
:10086000184702249440264212D015F0020F0FD0F0
:100870001A68950606D41A6822F00A021A60012343
:1008800080F8253000234C6080F82430C36AE5E707
:1008900008249440344211D02C070FD51C6824F052
:1008A0000E041C60012303FA02F24A60C36380F85D
:1008B0002530002380F82430436BCFE770BC7047AD
:1008C0002DE9F04F554AD1F8008000234FF00F0971
:1008D00038FA03F401D1BDE8F08F012404FA03FAD9
:1008E00018EA0A0500F08F804C6824F0100BBBF169
:1008F000020F11D1DF0800EB870703F0070E3E6AF5
:100900004FEA8E0E09FA0EFC26EA0C0C0E6906FA66
:100910000EF646EA0C063E624FEA430C03270668D1
:1009200007FA0CF7FF4304F0030E3E400EFA0CFEEC
:100930000BF1FF3B4EEA0606BBF1010F066011D832
:10094000866806EA070BCE6806FA0CFE4EEA0B062E
:100950008660466826EA0A0AC4F300169E4046EA04
:100960000A064660C66837408E6806FA0CF63743BA
:10097000E600C76047D523F0030707F1804707F576
:10098000803703F0030EBE684FEA8E0E09FA0EFCA4
:10099000B0F1904F26EA0C0C37D0214EB04236D041
:1009A00006F58066B04234D006F58066B04232D09B
:1009B00006F58066B04214BF0726042606FA0EF636
:1009C00046EA0C06BE60D2F88060EF4314F4803F24
:1009D0000CBF3E402E43C2F88060D2F8846014F40D
:1009E000003F0CBF3E402E43C2F88460166814F4EA
:1009F000801F0CBF3E402E4316605668A40254BFB1
:100A00003E402E435660013362E70026D6E70126BA
:100A1000D4E70226D2E70326D0E700BF000800583B
:100A2000000400480AB18161704781627047036821
:100A30009A69910744BF00229A629A69D2075EBF01
:100A40009A6942F001029A61704730B5039C0568CB
:100A50002343640D04F4806444F07F7444F45834F8
:100A60006868C1F3090144F47F74194344F0030436
:100A700041EA024120EA04042143696030BD2DE9C6
:100A8000F041069F0446884616461D462268936933
:100A900038EA03030CBF01230023B34202D0002035
:100AA000BDE8F0816B1CF2D0FFF742FDC01B854210
:100AB00001D3002DEAD1636C43F02003636420234B
:100AC00084F84130002384F8423084F8403001201B
:100AD000BDE8F081036870B50446986910F0100015
:100AE0000D46164616D170BD691C14D0FFF720FDC7
:100AF000801B854200D36DB9636C43F020036364AF
:100B0000202384F84130002384F8423084F84030B8
:100B1000012070BD236899698A06E5D51022202539
:100B2000DA612046DD61FFF782FF2268536823F017
:100B3000FF7323F48B3323F4FF7323F0010353601B
:100B4000636C43F00403636484F84150DBE770B5E1
:100B500004460D46164623689B699B0701D5002075
:100B600070BD324629462046FFF7B4FFA0B96A1C83
:100B7000F1D0FFF7DDFC801B854201D3002DEAD1C7
:100B8000636C43F020036364202384F84130002326
:100B900084F8423084F84030012070BD70B50446BE
:100BA0000D46164623689B699B0601D5002070BD43
:100BB000324629462046FFF78DFF90B9FFF7B8FC73
:100BC000801B854201D3002DECD1636C43F02003E0
:100BD0006364202384F84130002384F8423084F891
:100BE0004030012070BD10B5044600284AD090F86E
:100BF000413003F0FF021BB980F8402002F0A2FB55
:100C0000242384F841302368E1681A6822F0010245
:100C10001A60626822F070621A619A68012922F4EF
:100C200000429A60A26824D142F400429A605A6855
:100C3000616942F0007242F400425A60DA6822F4BC
:100C40000042DA6022690A43A16942EA0122DA60BD
:100C5000216AE2690A431A601A6842F001021A60C6
:100C600000202023606484F84130206384F842002F
:100C700010BD42F4044202299A6004BF4FF400629E
:100C80005A60D4E7012010BD2DE9F743984690F84B
:100C90004130202B04460E46914640F0848090F867
:100CA0004030012B7FD0012780F84070FFF740FCD7
:100CB0001923054600903A464FF400412046FFF7BD
:100CC000DEFE18B1012003B0BDE8F083212384F8D3
:100CD0004130102384F842306064A4F82A80638D88
:100CE000C4F824909BB2FF2B6063304B26D9FF22BF
:100CF000228500934FF0807331462046FFF7A5FE12
:100D0000638D0A999BB22A462046FBB9FFF746FF3E
:100D10000028D7D123682021D9615A6822F0FF72B8
:100D200022F48B3222F4FF7222F001025A6084F81E
:100D3000411084F8400084F84200C4E7628D0093BB
:100D400092B222854FF00073D2B2D5E7FFF7FFFED3
:100D50000028B7D1636A226813F8011B91626362AD
:100D6000638D228D013B9BB26385638D013A92B204
:100D70009BB22285002BC3D0002AC1D100950A9BCB
:100D800080212046FFF77BFE00289BD1638D9BB21C
:100D9000FF2B03D9FF2222850090ABE7628D0090E4
:100DA00092B22285CEE702208DE700BF00200080AE
:100DB0002DE9FF471D460023039390F84130202B77
:100DC000044690467DD103689B6913F4004378D1B3
:100DD00090F84020012A74D0012280F84020C1F30D
:100DE0000906242280F8412046F420594364E36830
:100DF0002268012B06BF46F0007343F400534B46B4
:100E00005360FFF795FB074623689A699B69C2F315
:100E10004012C3F3001302B96BB123689A690097BB
:100E200012F010022B4624D120212046FFF727FE86
:100E3000A8B101201AE06B1CE6D0FFF779FBC01BBC
:100E4000854201D3002DDFD1202384F84130636C2B
:100E500043F020036364002384F84030E9E722680C
:100E60002023D36184F8413084F8400004B0BDE809
:100E7000F087002220212046FFF701FE02460028CD
:100E8000D7D1236810214FF0200AD961C3F81CA0E4
:100E9000039941450ED1596841F48041596020467B
:100EA00000972B465146FFF7EAFD0028C1D1236881
:100EB000C3F81CA0039B01330393039B984596D86A
:100EC000C2E70220D2E790F84120D2B2202A10B522
:100ED0001DD190F84030012B19D0242380F84130E7
:100EE00003681C6824F001041C601C6824F480540E
:100EF0001C601C6821431960196841F001011960E8
:100F0000002380F8412080F84030184610BD0220B0
:100F100010BD10B590F84140E4B2202C1CD190F8DF
:100F20004030012B18D0242380F8413003681A6820
:100F300022F001021A601A6822F4706242EA01216A
:100F400019601A6842F001021A60002380F84140DB
:100F500080F84030184610BD022010BD70B5044620
:100F600086B0002857D090F8293203F0FF021BB951
:100F700080F8282202F08CFA032384F829322068B2
:100F800001F0DFFE0022606801261546D3B29842C8
:100F900002F1010220D800221146D3B2984202F198
:100FA000010228D804F110060FCE6D460FC5336834
:100FB0002B60231D0ECB206801F0CDFE0025012300
:100FC00084F8245084F82932E369012B02D12046A9
:100FD00000F024F828461FE004EB431181F8283084
:100FE000CB8602335B0181F8296081F82B508D6339
:100FF000CD63E550CAE704EB431585F828310A3381
:101000005B0185F8291185F82B11C5F83811C5F851
:101010003C11E150C1E7012006B070BD02680346F3
:101020000121C0F86812002083F86002B2F8543041
:101030009BB20B43A2F85430B2F854309BB243F049
:101040000203A2F854307047024A136843F48073D5
:101050001360704700040058024B186800F4C06029
:10106000704700BF000400584FF0B0431868C0F349
:10107000404070474FF0B0431868C0F3802070477D
:101080004FF0B043D3F89400C0F3400070474FF0E6
:10109000B0431868C0F3400070474FF0B042136887
:1010A00023F0F0031843106070474FF0B043186806
:1010B00000F0F000B02828BFB02070474FF0B042D9
:1010C000536823F47F4343EA0020506070474FF099
:1010D000B0431868C0F3406070470000B028324B3E
:1010E000324A98BF0009F0B58CBFDD6A53F8205032
:1010F0002F4C4FF0B0438DB0D3F8083103F00F03FD
:1011000004AE52F82330B5FBF3F52A4BB5FBF3F5EB
:10111000FFF7A2FF074694E80F0086E80F0004F1EE
:10112000100207CA01AB1C3483E8070094E80F00E3
:10113000B7F5007F0CAC04E90F001FD1002356F86F
:101140002320954215D80CAA02EB830353F8104CC8
:10115000194D2B6823F0070323432B60FFF7E8F9B1
:1011600006462B6803F007039C4216D100200DB001
:10117000F0BD0133042BE2D10024E9E7019B9D423D
:1011800007D9029B9D4206D9039B9D42F4D80223B6
:10119000D9E70023D7E70123D5E7FFF7C9F9801B7B
:1011A0000228DED90320E2E7783700081837000864
:1011B000E436000840420F0000400058F8B50446ED
:1011C00008B90120F8BD03689D062AD54FF0B0424A
:1011D0009368D26813F00C0305D00C2B46D102F0B3
:1011E0000303012B42D1FFF752FF10B1E369002B3B
:1011F000E7D0626AFFF759FF8242606A2BD9FFF796
:101200006DFF0028DDD1606AFFF747FF206AFFF716
:1012100055FF02F0AFF9B84B1868FFF741F9002805
:10122000CFD12368D8074ED42368990700F198805E
:10123000236813F0180F40F0D98023685A0700F193
:10124000688123685A0600F1BA81E06A002840F0FC
:10125000E2810020F8BDFFF720FF206AFFF72EFF94
:10126000606AFFF73BFF0028D3D0AAE7E2694FF09E
:10127000B043BAB11A6842F001021A60FFF758F998
:101280000546FFF704FF30B1606AFFF706FF206AEA
:10129000FFF714FFC5E7FFF74BF9401B0228F0D911
:1012A0000320F8BD1A6822F001021A60FFF740F926
:1012B0000546FFF7ECFE0028B3D0FFF739F9401BD5
:1012C0000228F6D9ECE74FF0B0429368D26803F0F9
:1012D0000C03082B05D00C2B0BD102F00303032BBE
:1012E00007D1FFF7C1FE00289ED06368002B9BD179
:1012F00067E76268B2F5803F4FF0B04310D11A68DB
:1013000042F480321A60FFF713F90546FFF7ACFE8E
:10131000002889D1FFF70CF9401B6428F6D9BFE7F4
:10132000B2F5A02F04D11A6842F480221A60E6E7D1
:10133000196821F480311960196821F4802119603D
:10134000002AE0D1FFF7F4F80546FFF78DFE0028EC
:101350003FF46AAFFFF7ECF8401B6428F5D99FE72C
:101360004FF0B0429368D26803F00C03042B05D011
:101370000C2B14D102F00303022B10D1FFF77AFEDD
:1013800018B1E368002B3FF41CAF4FF0B042216965
:10139000536823F0FE4343EA0163536048E7E26881
:1013A0004FF0B04382B11A6842F480721A60FFF7BE
:1013B000BFF80546FFF75EFE0028E6D1FFF7B8F854
:1013C000401B0228F6D96BE71A6822F480721A6073
:1013D000FFF7AEF80546FFF74DFE00283FF428AFB3
:1013E000FFF7A6F8401B0228F5D959E762694FF0CC
:1013F000B045002A6BD0DB0643D5FFF741FE10B3A2
:101400004FF0B045D5F8943043F00403C5F894305C
:10141000FFF78EF80646D5F894301F0740F17D811E
:10142000D5F89430A26923F4706343EA0223C5F827
:101430009430D5F8943023F00103C5F89430FFF7C9
:1014400077F8054618E0D5F8943043F00103C5F865
:101450009430FFF76DF80546FFF712FE0028CFD154
:10146000FFF766F8401B0228F6D919E7FFF760F886
:10147000401B02283FF614AFFFF702FE0028F5D10B
:10148000DBE6D5F8943043F00103C5F89430FFF75C
:101490004FF80646FFF7F4FD98B14FF0B0431D46F4
:1014A000D3F8942022F00402C3F89420D5F89430A5
:1014B00018077FF5C2AEFFF73BF8801B0328F5D96C
:1014C000EEE6FFF735F8801B0228E3D9E8E6D5F809
:1014D000943023F00403C5F89430FFF729F806464A
:1014E000D5F89430190740F11F81FFF721F8801BD0
:1014F0000328F5D9D4E600BF08000020FFF718F84C
:10150000401B02283FF6CCAEFFF7BAFD0028F5D10C
:1015100093E68B4D2B68DB051CD5A368012B4FF0A0
:10152000B04525D1D5F8903043F00103C5F890308F
:10153000FEF7FEFF4FF0B047064641F28835D7F878
:10154000903098073FF57DAEFEF7F2FF801BA84272
:10155000F5D9A5E6FFF778FDFEF7EAFF06462B680A
:10156000DF05DAD4FEF7E4FF801B0228F7D997E6FF
:10157000052B06D1D5F8903043F00403C5F8903020
:10158000D0E7D5F8902022F00102C5F89020D5F8D8
:10159000902022F00402C5F89020002BC8D1FEF75D
:1015A000C7FF41F288360746D5F8903099077FF596
:1015B00048AEFEF7BDFFC01BB042F5D970E6A36A86
:1015C0004FF0B0459BB1D5F8983043F00103C5F812
:1015D0009830FEF7ADFF0646D5F898309A073FF5EC
:1015E00034AEFEF7A5FF801B0228F5D958E6D5F8E2
:1015F000983023F00103C5F89830FEF799FF0646AE
:10160000D5F898309B077FF520AEFEF791FF801B41
:101610000228F5D944E64FF0B0439A6802F00C0274
:101620000C2A52D01A68022822F080721A6034D133
:10163000FEF77EFF0546FFF74AFD40BB4FF0B04284
:10164000616B236BD0680B433E4901400B43E16B58
:101650000B43216C0B43616C0B43A16B43EA0123E9
:10166000D360136843F080731360D36843F08053F2
:10167000D360FEF75DFF0446FFF729FD00287FF4E5
:10168000E8ADFEF755FF001B0228F5D908E6FEF786
:101690004FFF401B0228CED902E6DA6822F003028F
:1016A000DA60DA6822F0885222F48032DA60FEF7DB
:1016B0003FFF0446FFF70BFD00283FF4CAADFEF7DD
:1016C00037FF001B0228F5D9EAE5012836D0D86893
:1016D000236B00F003029A427FF473AD626B00F05B
:1016E000700393427FF46DADA26BC0F30623934267
:1016F0007FF467ADE26B00F4781393427FF461AD41
:10170000226C00F0606393427FF45BAD636C00F089
:101710006040C01A18BF0120F8BDFEF709FF801B0A
:1017200003287FF678AEBBE5D5F8943023F00103AB
:10173000C5F89430FEF7FCFE0546E5E6F8BD00BFAF
:10174000000400588C80C1112DE9F0410D4604467B
:1017500010B90120BDE8F081794E336803F007032A
:101760008B4272D3236899070ED54FF0B046A2681A
:10177000B36823F0F0031343B360FEF7D9FE0746C6
:10178000B368DB0340F1B88023689A0611D54FF0A7
:10179000B0466269D6F8083123F0F0031343C6F867
:1017A0000831FEF7C5FE0746D6F80831990340F127
:1017B000AA802368580612D54FF0B046A269D6F821
:1017C000083123F00F0343EA1213C6F80831FEF77D
:1017D000AFFE0746D6F80831DB0340F19B80236853
:1017E0005A070ED54FF0B046E268B36823F4E063C1
:1017F0001343B360FEF79CFE0746B368990340F1BC
:101800009080236818070FD54FF0B0462269B3685F
:1018100023F4605343EAC203B360FEF789FE074630
:10182000B3685B0340F184802368DA0723D4444C17
:10183000236803F007039D424BD301F09BFEFEF7A4
:101840007DFEBDE8F041FEF72BBE336823F00703B1
:101850000B433360FEF76CFE0746336803F0070363
:101860009D423FF47FAFFEF763FEC01B0228F4D910
:101870000320BDE8F0816368022B1ED1FFF7F4FB63
:1018800000283FF466AF4FF0B0466268B36823F0BB
:1018900003031343B360FEF74BFE41F2883807465B
:1018A000B368626803F00C03B3EB820FBFD0FEF79E
:1018B0003FFEC01B4045F3D9DAE7032B02D1FFF707
:1018C00006FCDDE713B9FFF7E2FBD9E7FFF7D2FB30
:1018D000D6E7236823F007032B432360FEF728FE97
:1018E0000646236803F007039D42A6D0FEF720FEBC
:1018F000801B0228F5D9BBE7FEF71AFEC01B0228A1
:101900007FF63EAFB4E7FEF713FEC01B02287FF65A
:101910004BAFADE7FEF70CFEC01B02287FF65AAFB7
:10192000A6E7FEF705FEC01B02287FF666AF9FE71D
:10193000FEF7FEFDC01B02287FF672AF98E700BFDE
:10194000004000584FF0B04208B5936813F00C0304
:1019500007D1FFF7AAFB1F4BC0F3031053F8200079
:1019600008BD042B33D0082B07D113681A4813F491
:10197000801F1A4B08BF184608BDD36803F0030345
:10198000022B22D0032B18D11368144813F4801FA4
:10199000114B08BF03464FF0B042D068D168D268FF
:1019A000C0F306205843C1F302130133B0FBF3F038
:1019B000530F0133B0FBF3F008BDFFF776FB054B87
:1019C000C0F3031053F82030E5E7034BE3E7024888
:1019D00008BD00BF783700080024F4000048E80183
:1019E00008B5FFF7AFFF4FF0B043044A9B68C3F35D
:1019F000031352F82330B0FBF3F008BD183700088A
:101A000008B5FFF7EDFF4FF0B043054A9B68C3F3FD
:101A1000022352F8233003F01F03D84008BD00BF53
:101A20005837000808B5FFF7DBFF4FF0B043054A11
:101A30009B68C3F3C22352F8233003F01F03D8403E
:101A400008BD00BF583700084FF0B043D3F89000EE
:101A5000C0F3400070474FF0B0410209D1F8883020
:101A600002F47F22000123EA020300F47F201843DE
:101A7000C1F8880070474FF0B042136843F08063AC
:101A8000136070474FF0B042136823F08063136017
:101A900070474FF0B0431868C0F3C0607047F8B5A6
:101AA000056815F04005044643D0036BB3F5800F7D
:101AB00015D002D8D3B101253BE0B3F5000F02D019
:101AC000B3F5400FF7D14FF0B042216BD2F8883018
:101AD00023F440030B43C2F88830002529E04FF07F
:101AE000B042D36843F48033D360ECE7FFF7CAFF1A
:101AF000FEF71EFD0546FFF7CCFFA0B94FF0B04240
:101B00006168136923F4FE4343EA012313611369F7
:101B1000A16823F478130B431361FFF7ACFFFEF7C2
:101B200007FD0546CDE0FEF703FD401B0228E2D984
:101B3000032523681A0515D54FF0B046236CD6F857
:101B4000907007F44077BB420CD0FFF77DFAD6F8CF
:101B50009030002F40F0C080226C23F44073134378
:101B6000C6F890302368DF0709D54FF0B041A0696F
:101B7000D1F8882022F003020243C1F888209E0792
:101B800009D54FF0B041E069D1F8882022F44062D5
:101B90000243C1F88820D8060CD5A66A4FF0B040A1
:101BA000310CD0F88820090422EA010242EA0642F8
:101BB000C0F8882099060CD5E66A4FF0B040310C89
:101BC000D0F88820090422EA010242EA0642C0F85D
:101BD00088205A0702D5206AFFF73DFF23681B07BC
:101BE00002D5606AFFF737FF2368DF0511D54FF094
:101BF000B042616BD2F8883023F040630B43B1F1FF
:101C0000006FC2F8883040F09080D36843F0807352
:101C1000D36023689E051AD5A26BB2F1004F4FF036
:101C2000B04303D032F0804140F0B780D3F8881041
:101C300021F040411143B2F1C05F08BF4FF0B04204
:101C4000C3F8881002BFD36843F08073D360236861
:101C5000580511D54FF0B042E16BD2F8883023F02F
:101C600040530B43B1F1005FC2F8883040F0A380CD
:101C7000D36843F48033D3602268D10409D54FF090
:101C8000B041606CD1F8943023F440430343C1F871
:101C9000943093040DD54FF0B042E16C536A23F0B9
:101CA00030030B435362536AA16C23F003030B43CD
:101CB00053622846F8BDFEF73BFC401B02283FF666
:101CC00037AFFFF7E6FE0128F5D14FF0B04261696A
:101CD00013690B431361F6E6D6F8902042F4803284
:101CE000C6F89020D6F8902022F48032C6F89020D2
:101CF000226C23F440731343C6F89030D6F890302A
:101D0000DB077FF52FAFFEF713FC41F2883607465D
:101D100004E0FEF70DFCC01BB04204D8FFF794FEB0
:101D20000128F6D11EE703251CE7B1F1806F7FF48F
:101D300070AFFFF7A7FEFEF7FBFB0646FFF7A9FE15
:101D4000A0B94FF0B0426168136923F4FE4343EA3F
:101D5000012313611369E16823F060630B4313618E
:101D6000FFF789FEFEF7E4FB06460BE0FEF7E0FB1B
:101D7000801B0228E2D903254BE7FEF7D9FB801B25
:101D80000228F8D8FFF785FE0128F6D14FF0B042BF
:101D9000616913690B4313613BE7D3F8881021F0A5
:101DA0004041C3F88810D3F8880022F0805120F019
:101DB000406001433FE7B1F1805F7FF45DAFFFF723
:101DC00061FEFEF7B5FB0646FFF763FEA0B94FF0D4
:101DD000B0426168136923F4FE4343EA01231361AF
:101DE0001369216923F060430B431361FFF743FE3E
:101DF000FEF79EFB06460BE0FEF79AFB801B0228CF
:101E0000E2D9032538E7FEF793FB801B0228F8D8B8
:101E1000FFF73FFE0128F6D14FF0B0426169136928
:101E20000B43136128E74FF0B042136843F00403FB
:101E30001360704703685A6822F0E0025A604268F3
:101E4000B2F5827F0AD18268B2F5004F02D0B2F5B6
:101E5000806F03D11A6822F040021A60826AB2F5DC
:101E6000005F07D11A6822F400521A601A6842F41F
:101E700000521A60012380F85D30002380F85C3046
:101E80000320704770B504460D46164623689868CF
:101E900010F0800000D170BD6A1CF8D0FEF748FB3E
:101EA000801B8542F2D82046BDE87040FFF7C2BFD4
:101EB000F8B505460C4616461F4629688868204036
:101EC00000D1F8BDB4F5C06F08BF0B7B731CF5D013
:101ED000FEF72EFBC01B8642EFD82846BDE8F8402F
:101EE000FFF7A8BF70B513460D4616460A464FF4D5
:101EF000C0510446FFF7DCFF28B1236E43F02003F6
:101F0000236603200FE0324629462046FFF7BAFF3A
:101F10000028F2D133462A464FF4C0612046FFF72D
:101F2000C7FF0028E9D170BD70B5044600284AD02B
:101F30000023836290F85D3003F0FF021BB980F844
:101F40005C2001F02FFA0223216884F85D300B68D1
:101F5000E26823F04003B2F5E06F0B604FF000033E
:101F60002ED91846B2F5706F18BFA362236B2BB938
:101F7000B2F5E06F8CBF022301232363A668636878
:101F8000A56933432669334366693343E6693343BE
:101F9000266A3343A66A334305F4007633430B6065
:101FA000636A1A43636B2D0C1A4305F004052A4338
:101FB0000243012300204A60206684F85D3070BD32
:101FC0004FF48050D0E7012070BD000090F85C30E5
:101FD000012B10B5044670D0012380F85C3090F8D6
:101FE0005D00C0B2984266D1002947D0002A45D092
:101FF000032384F85D30002323662364E28723658E
:10200000A4F84630E364A4F84430A368A2872268A9
:10201000606DA163B3F5004F02BF136843F48043C2
:102020001360274B0363274BC362274B4363002393
:102030008363536823F480435360E368B3F5E06F30
:102040000FD88369B3F5806F0BD1E38F13F0010FC5
:10205000536817D123F480435360E38FC3F34E03D7
:10206000E387E38F0C329BB2FEF79EFB90B1236EA9
:10207000012043F01003236684F85D00002384F8F8
:102080005C3010BD43F480435360E38FC3F34E03D1
:102090000133E5E723681A6852065EBF1A6842F00A
:1020A00040021A605A6842F020025A605A6842F0B0
:1020B00002025A60E2E70220E0E7022010BD00BF02
:1020C000D1200008FF200008DD200008704770477D
:1020D00008B5806AFFF7FBFF08BD7047806A026899
:1020E00008B5536823F003035360036E43F01003F5
:1020F0000366012380F85D30FFF7EFFF08BD37B5B9
:102100000546846AFEF714FA2B681B689B06024694
:1021100026D42368596821F020015960596821F0BC
:102120000201596020466421FFF7DCFE18B1236EDE
:1021300043F020032366A36833B901932368DA6868
:1021400001929B680193019B0023E387012384F89C
:102150005D30236E23B12046FFF7BFFF03B030BDD3
:102160002046FFF7B3FFF9E70268C16983682DE9EC
:10217000F048044600691568034360690343606ED4
:102180000B430343AC482840034313605368E068A3
:1021900023F4405303435360A84BA0699A421CBFE9
:1021A000236A1843936823F06E4323F43063034398
:1021B0009360D06A636A20F00F001843D062A04891
:1021C00082421AD14FF0B0429E48D2F8882002F0E5
:1021D0000302B1F5004F825C02F1FF3200F0208271
:1021E000072A00F2E783DFE812F027034903E5033B
:1021F0008C03E503E503E503A5039048824240F024
:10220000D5834FF0B042D2F8882002F44062B2F594
:10221000806F00F094800CD8CAB301220123A4F887
:102220006A30A4F868300023E36623671046BDE8EF
:10223000F088B2F5006F64D0B2F5406FEDD1002B9D
:1022400000F0E180012B00F0E180022B00F0E18042
:10225000032B00F0E180042B00F0E180052B00F05F
:10226000E180062B00F0E180072B00F0E180082BD5
:1022700000F00081092B00F000810A2B00F00081A2
:102280000B2B14BF4FF400408020082393E0FFF78E
:10229000B7FB636AFBB1012B1FD0022B1FD0032BAE
:1022A0001FD0042B1FD0052B1FD0062B1FD0072BB0
:1022B0001FD0082B1FD0092B1FD00A2B1FD00B2B90
:1022C00014BF01234FF48073B0FBF3F00023002808
:1022D00071D10246A2E70123F6E70223F4E70423C3
:1022E000F2E70623F0E70823EEE70A23ECE70C23E6
:1022F000EAE71023E8E72023E6E74023E4E780232A
:10230000E2E7002B52D0012B52D0022B52D0032BEC
:1023100069D0042B69D0052B69D0062B69D0072B17
:1023200069D0082B69D0092B69D00A2B69D046489F
:102330004FF224420B2B08BF104602233BE0FFF76D
:1023400001FB636AE3B1012B1CD0022B1CD0032BD1
:102350001CD0042B1CD0052B1CD0062B1CD0072B0B
:102360001CD0082B1CD0092B1CD00A2B1CD00B2BEB
:1023700014BF01234FF48073B0FBF3F00423A6E7EE
:102380000123F9E70223F7E70423F5E70623F3E740
:102390000823F1E70A23EFE70C23EDE71023EBE72F
:1023A0002023E9E74023E7E78023E5E72648C4E761
:1023B0002648C2E72648626802EB420181423FF6A6
:1023C0002CAFB0EB023F3FF628AF082B00F225817F
:1023D000DFE813F05900230195002301D100230108
:1023E00023012301EA001B48A7E71B48A5E71B4878
:1023F000A3E71B48A1E71B489FE71B489DE71B4835
:102400009BE71B4899E74FF400403EE74FF48040BC
:102410003BE74FF4005038E741F2555035E74FF4B1
:10242000805032E740F6CC402FE740F6AA202CE758
:102430004FF4006029E700BFF369FFCF0080004040
:1024400000380140143700080024F40000127A001C
:1024500000093D00AAB0280080841E00006A180010
:102460005558140040420F0020A1070090D00300EF
:1024700048E801004FF480609DE74FF4007004E7E6
:102480004FF4807001E7FFF7BBFA636A002B00F09E
:102490008980012B72D0022B72D0032B72D0042BB7
:1024A00072D0052B72D0062B72D0072B72D0082B5E
:1024B00072D0092B72D00A2B72D00B2B72D14FF431
:1024C000807200230021FDF763FE65680F0247EA72
:1024D00010670602680816EB000B47F1000C2A464D
:1024E000002358466146FDF753FE00229A4BA0F5A3
:1024F000407199423FF691AE2368D8608EE6636AD8
:10250000002B36D0012B16D0022B16D0032B16D061
:10251000042B1ED0052B1ED0062B1ED0072B20D03F
:10252000082B20D0092B20D00A2B20D00B2B20D118
:102530008A48002106E08A48FBE78A48F9E782A139
:10254000D1E90001550840194FF0000341F10001A5
:10255000C9E78548EDE78548EBE77DA1D1E90001B2
:10256000F0E78348E5E78348E3E78348E1E783480A
:10257000DFE78348DDE7FFF7E5F986E70222A0E71A
:1025800004229EE706229CE708229AE70A2298E79F
:102590000C2296E7102294E7202292E7402290E74F
:1025A00080228EE701228CE7636A9BB3012B16D051
:1025B000022B17D0032B18D0042B18D0052B19D0C1
:1025C000062B19D0072B19D0082B1AD0092B1BD09A
:1025D0000A2B1CD00B2B1DD14FF40040A9E74FF460
:1025E0008000A6E74FF40010A3E76648A1E74FF488
:1025F00080109EE764489CE764489AE74FF4002007
:1026000097E74FF4802094E74FF4003091E74FF4C0
:1026100080308EE74FF400008BE70122002065E751
:10262000072A00F20681DFE812F008003F000401EB
:102630007600040104010401C700FFF7F3F9616AA1
:1026400000296BD001296BD002296BD003296BD0F4
:1026500004296BD005296BD006296BD007296BD0D4
:1026600008296BD009296BD00A296BD00B2914BF1C
:1026700001224FF480726168B0FBF2F24B0803EB69
:102680004203B3FBF1F39BB20022A3F110004FF61B
:10269000EF7188423FF6C1AD23F00F012068C3F30C
:1026A00042030B43C360B9E5FBB1012B1FD0022BE2
:1026B0001FD0032B1FD0042B1FD0052B1FD0062BA0
:1026C0001FD0072B1FD0082B1FD0092B1FD00A2B80
:1026D0001FD02F49294A0B2B14BF13460B466268A3
:1026E00003EB5203B3FBF2F3CDE7244BF7E71B4BAD
:1026F000F5E7284BF3E7284BF1E7284BEFE7284BAA
:10270000EDE7284BEBE7284BE9E7284BE7E7284BB9
:10271000E5E7284BE3E7FFF715F990E70122AAE781
:102720000222A8E70422A6E70622A4E70822A2E7DD
:102730000A22A0E70C229EE710229CE720229AE7BB
:10274000402298E7802296E700AAB0280000000007
:102750000055581400000000FFFC0F000024F40096
:102760000000127A0000093D0080841E00006A18F3
:102770000040420F0020A1070090D0030048E8016C
:10278000000024F40055150000CC0C0000AA0A003B
:1027900048E8010000127A005461510000093D0030
:1027A00000D43000AAB0280080841E0040420F00F0
:1027B00020A1070090D00300D3B1012B1BD0022B26
:1027C0001CD0032B1DD0042B1ED0052B1FD0062B95
:1027D00020D0072B21D0082B22D0092B23D00A2B65
:1027E00024D00B2B14BF4FF480334FF4807376E763
:1027F0004FF4803373E74FF4004370E74FF48043A6
:102800006DE742F6AA236AE74FF4005367E741F603
:10281000981364E741F2545361E74FF480535EE745
:102820004FF400635BE74FF4806358E74FF40073A5
:1028300055E70122002328E7FFF7F4F8636A002B2D
:1028400062D0012B62D0022B62D0032B62D0042B0A
:1028500062D0052B62D0062B62D0072B62D0082BEA
:1028600062D0092B62D00A2B62D00B2B14BF01233C
:102870004FF480736268B0FBF3F31CE05BB3012B91
:102880002BD0022B2BD0032B2BD0042B2BD0052BA2
:102890002BD0062B2BD0072B2BD0082B2BD0092B82
:1028A0002BD00A2B2BD0454A4FF224410B2B14BFBF
:1028B00013460B46626803EB5203B3FBF2F30022AC
:1028C0009BB2A3F110004FF6EF7188423FF6A5AC22
:1028D0002168CB60A2E4394BECE7394BEAE7394B8E
:1028E000E8E7394BE6E7394BE4E7394BE2E7394BA8
:1028F000E0E7394BDEE7394BDCE7394BDAE7394BB8
:10290000D8E7FFF71FF899E70123B3E70223B1E700
:102910000423AFE70623ADE70823ABE70A23A9E7C3
:102920000C23A7E71023A5E72023A3E74023A1E773
:1029300080239FE7CBB1012B1AD0022B1BD0032B96
:102940001CD0042B1DD0052B1ED0062B1FD0072B0F
:1029500020D0082B21D0092B22D00A2B23D00B2BDF
:1029600014BF4FF400438023A4E74FF40043A1E7D2
:102970004FF480439EE74FF400539BE741F25553D9
:1029800098E74FF4805395E740F6CC4392E740F642
:10299000AA238FE74FF400638CE74FF4806389E745
:1029A0004FF4007386E74FF4807383E7B1F5004F6F
:1029B0003FF43FAF0122002383E700BF0024F4006F
:1029C00000127A0000093D00AAB0280080841E0091
:1029D000006A18005558140040420F0020A107005B
:1029E00090D0030048E80100836ADA0710B506D5E5
:1029F0000168C46A4A6822F4003222434A609C0794
:102A000006D50168046B4A6822F4803222434A608A
:102A1000590706D50168446B4A6822F48022224394
:102A20004A601A0706D50168846B4A6822F400429E
:102A300022434A60DC0606D50168C46B8A6822F42A
:102A4000805222438A60990606D50168046C8A6820
:102A500022F4005222438A605A060FD50168446C62
:102A60004A6822F480122243B4F5801F4A6005D1DF
:102A70004A68846C22F4C00222434A601B0606D5D1
:102A80000268C16C536823F400230B43536010BDEC
:102A90002DE9F041069D04460F46164698462168EA
:102AA000CA6937EA02030CBF01220022B24202D0F7
:102AB0000020BDE8F081681CF2D0FDF739FDA0EBE5
:102AC000080085422068036800D38DB923F4D073D1
:102AD0000360836823F0010383602023C4F88030FF
:102AE000C4F88430002384F87C300320BDE8F081F2
:102AF0005A07D4D5C3691B05D1D54FF400630362CF
:102B0000036823F4D0730360836823F001038360B8
:102B10002023C4F88030C4F88430C4F88830E1E75A
:102B200073B504460026C0F88860FDF701FD2368F0
:102B30001B681A07054617D423681B685B070AD56C
:102B40006FF07E43009300222B464FF48001204615
:102B5000FFF79EFFA0B920230020C4F8803084F83E
:102B60007C00C4F884300CE06FF07E430093324662
:102B700003464FF400112046FFF78AFF0028DBD000
:102B8000032002B070BD10B5044650B3D0F88030B9
:102B90001BB980F87C3000F04DFC22682423C4F877
:102BA0008030136823F0010313602046FFF7DCFA3E
:102BB000012816D0A36A13B12046FFF715FF23683A
:102BC0005A6822F490425A609A6822F02A029A6067
:102BD0001A6842F0010220461A60BDE81040FFF773
:102BE0009FBF012010BD1FB503228DF803200722CF
:102BF0008DF8042000228DF806208DF80720082289
:102C00008DF808208DF80C20426E01230421022447
:102C10008DF800308DF801308DF802308DF80530D8
:102C20008DF809108DF80A408DF80B108DF80D30D5
:102C30008DF80E308DF80F302AB9A0F86A30A0F860
:102C4000683004B010BD02689368916804AA02EB72
:102C50005171C3F3426311F8102C11F8081CD20013
:102C600092FBF1F2A0F86A2004AA134413F8102C86
:102C700013F8083CD20092FBF3F3E0E790F87C30C5
:102C8000012B14D002682423C0F880301168136827
:102C900023F00103136021F000510023436611600B
:102CA0002022C0F8802080F87C301846704702202F
:102CB000704738B590F87C30012B04461BD00123B7
:102CC00080F87C302423C0F8803003681D681A68BF
:102CD00022F001021A609A6822F060421143996062
:102CE000FFF781FF03681D602023C0F880300020BB
:102CF00084F87C0038BD022038BD38B590F87C30AF
:102D0000012B04461BD0012380F87C302423C0F81B
:102D1000803003681D681A6822F001021A609A6800
:102D200022F0606211439960FFF75DFF03681D6048
:102D30002023C0F88030002084F87C0038BD0220B9
:102D400038BDB0F8403023F47E535B045B0CA0F830
:102D500040300020704784B010B503AC84E80E000A
:102D600000220123A0F84030A0F84020A0F8442021
:102D7000A0F85020B0F84030BDE810409BB243F4BA
:102D80003F4343F08003A0F8403004B01046704742
:102D900070B509020C2401EB024260430E4E13444D
:102DA0000230182100220124C3F3C05554B1002D74
:102DB0000CBF8022C0220139C4F101044FEA430351
:102DC000F2D170BD002D0CBF08250C252A44D2B2CB
:102DD00032540130EFE700BF3800002010B5002466
:102DE000002320461A4619460134FFF7D1FF182C5C
:102DF000F6D110BD08B54FF491720449FFF7E6F81B
:102E00000120BDE80840FDF79FBB00BF380000204F
:102E1000F0B5134A85B0002301AC1146D018807874
:102E2000185501330C2BF9D15A1C03F10D000A443B
:102E30000844A3F10C0512F8017FD61A8242775597
:102E4000F9D10C33B3F5907FEED10023CA18E05CC2
:102E500082F8160101330C2BF8D105B0F0BD00BF8C
:102E6000380000204FF0B04382B0DA6C0243DA64DD
:102E7000DB6C18400190019B02B0704710B5002434
:102E800000231A4620461021FFF782FF002319462F
:102E9000201D1022FFF77CFF0022114604F10800DC
:102EA0001823FFF775FF1023194604F10C000022C8
:102EB000FFF76EFF1023E0181A460021FFF768FFA6
:102EC000102204F11400002311460134FFF760FFC3
:102ED000042CD5D110BD00000F4B07B518680F4B5F
:102EE00001901A680A2192FBF1F301FB13230C4AAB
:102EF000106890FBF1F201FB120230328DF80420D1
:102F0000303301AA702107488DF8073000F0E2F94C
:102F100003B05DF804FB00BF10370008600100201B
:102F20005C0100206801002030B5AFB048220021CC
:102F300008A800F0C3FB1C22002101A800F0BEFB82
:102F4000002150221AA800F0B9FB4FF0B043012530
:102F5000DA6822F07002DA60DA6822F0030242F0E6
:102F60000102DA60D3F8902022F01802C3F8902012
:102F7000264A136823F4C06343F400731360136894
:102F80000A9503F4C0630093009B0F9527230893D1
:102F90004FF4803309934FF480730B9340230C93C9
:102FA00008A860231193FEF709F96F23002429462E
:102FB000019301A8022302930394049405940694B8
:102FC0000794FEF7C1FB42F205131A9318231B93D3
:102FD0004FF400331C934FF000731D934FF00053D8
:102FE0001E934FF080731F934FF4403322934FF0A2
:102FF000806327931AA810232D9320942C94FEF716
:103000004EFDFEF710FF2FB030BD00BF000400588A
:10301000BFB5FDF76BFAFFF787FF1422002101A867
:1030200000F04CFB0420FFF71DFF0220FFF71AFF02
:103030000120FFF717FF0820FFF714FF00222321CC
:103040005D485E4D5E4E0024FDF7ECFC4FF010082D
:1030500001A95C48029401270394CDF80480FDF790
:103060002FFC232301A9544801930394049402974D
:10307000FDF726FC032301A953480193029403940E
:10308000FDF71EFC4FF0B04321469A6C42F004025B
:103090009A649A6C02F004020192019A9A6C3A4383
:1030A0009A649B6C3B40224600930B20009BFDF7EB
:1030B00071FA0B20FDF7A2FA4449EC604FF4E132BB
:1030C0004FF0805385E80E0028460C236B612C617D
:1030D000AC61EC612C626C62AC62FFF754FD21467E
:1030E0002846FFF7E6FD21462846FFF706FE28465C
:1030F000FFF7C4FD3648374B44614FF0080E80E8B7
:1031000008400223836003618461C4610462FDF7A7
:1031100025FFDFF8D4C0304BB460304686E8081095
:1031200034617461B461F4613462F760FDF75BFD92
:1031300021463046FDF7C7FE21463046FDF7E9FE41
:10314000264D274AAC604FF4827385E80C004FF49B
:10315000E063EB604FF40073AB6128460723EB623A
:103160002C612C626C62AC622C636C636F61C5F87D
:103170001C80FEF7D9FE7021304600F065F8FFF79D
:10318000ABFEFFF72BFEFFF779FE2846FFF732FE76
:10319000144C0A2623680133382093FBF6F206FB11
:1031A00012332360FDF7D0F9FFF796FEFFF730FEEC
:1031B0002846FFF71FFEEDE700040048B401002099
:1031C0006801002000080048000C00480038014059
:1031D000A40200200068004000540040400200208B
:1031E000003001405C010020BB7C70007047000093
:1031F000144B00224021D1540132802AFBD10022FD
:1032000083F820203F2283F83020062283F83120E3
:103210005B2283F832204F2283F83320662283F822
:1032200034206D2283F835207D2283F83620072252
:1032300083F837207F2283F838206F2283F83920E3
:10324000704700BF78050020F0B587B00D460646F0
:10325000FFF7CEFF6D00ADB20A27C823032229462F
:103260003046FDF7A5FD044640B14FF4FA70FDF776
:103270006BF9013FF1D1204607B0F0BD06AA21232A
:10328000642402F80C3D2946009401233046FDF7E2
:10329000FBFC0028F0D14FF4FA70FDF755F906AAAF
:1032A000812302F8083D2946009401233046FDF7AA
:1032B000EBFC0028E0D14FF4FA70FDF745F906AABF
:1032C000E72302F8043D2946009401233046FDF728
:1032D000DBFCD1E72DE9F7434900114DDFF84480CD
:1032E000814617468EB200243846FCF749FFA042BB
:1032F00006D93B5D012C18F8033094BF6B70EB705E
:103300000134042C05F10205EED164230093044A34
:103310000A2331464846FDF7B7FC03B0BDE8F08309
:103320000C000020780500204FF0B04382B0DA6C2A
:103330000243DA64DB6C18400190019B02B07047D5
:103340007047000010B5044686B01422002101A881
:1033500000F0B4F92268114B9A421DD10220FFF708
:10336000E3FF4FF44073019312230293012303936D
:103370000023049304230DEB030109480593FDF793
:103380009FFA4FF0B0439A6D42F400129A659B6D1C
:1033900003F400130093009B06B010BD00540040DE
:1033A0000004004870B5064686B01422002101A82A
:1033B00000F084F932681C4B9A4233D14FF0B0438D
:1033C00001201A6E194C42F480521A661B6E03F4E7
:1033D00080530093009BFFF7A7FF822301930223F2
:1033E000029303230025049301A905234FF0904085
:1033F00005930395FDF764FA0D49E5601023072254
:1034000084E80E008023236120464FF44053656119
:10341000A561E5612362FDF757F908B1FFF7E6FE04
:103420007465A66206B070BD00300140180500202A
:103430000800024010B5044686B01422002101A8FD
:1034400000F03CF92268104B9A421AD14FF0B04379
:1034500002201A6E42F480421A661B6E03F4804307
:103460000093009BFFF760FFC023019302230293A8
:1034700000230393049301A9072304480593FDF750
:103480001FFA06B010BD00BF00380140000400481C
:1034900010B5044686B01422002101A800F00EF9F0
:1034A0002268114B9A421CD10120FFF73DFF4FF4D7
:1034B000C05301930223029300230393049301A9B1
:1034C0000A234FF090400593FDF7FAF94FF0B0430F
:1034D0009A6D42F080629A659B6D03F08063009361
:1034E000009B06B010BD00BF006800407047FEE7BB
:1034F000FEE7FEE7FEE7704770477047FDF70CB840
:103500000148FDF793B900BF18050020174B0021B3
:103510009960D3F8882042F47002C3F888204FF0F5
:10352000B0436FF4827C1A6842F001021A604FF4D3
:10353000E0229A601868A2F1A262624402401A6016
:10354000D3F8942022F00502C3F89420D3F89820F1
:1035500022F00102C3F89820054ADA601A611A685D
:1035600022F480221A609961704700BF00ED00E0EC
:10357000001004224FF0B042244913689068C3F34E
:10358000031300F00C0010B551F823401146204AF7
:103590000C2839D8DFE800F03838383807383838A0
:1035A0001638383818001B4B13604FF0B0431A48D8
:1035B00099681368C1F3031150F82110B3FBF1F3BC
:1035C000136010BD154BEFE7C868CB6800F003002F
:1035D000C3F30213022803F101030ED10D49B1FB1D
:1035E000F3F34FF0B041C868C968C0F30620490F33
:1035F00043430131B3FBF1F3D6E7032801D1074977
:10360000EDE7B4FBF3F3ECE71460CEE7783700089E
:10361000180000200024F400183700080048E801D2
:103620000D4885460D480E490E4A002302E0D45845
:10363000C4500433C4188C42F9D30B4A0B4C0023FA
:1036400001E013600432A242FBD3FFF75FFF00F0FA
:1036500011F8FFF7DDFCFEE7000003200400002066
:103660001C000020C83700081C000020F8050020BE
:10367000FEE7000070B50D4E0D4CA41BA4100025F4
:10368000A54209D10B4E0C4C00F020F8A41BA4104D
:103690000025A54205D170BD56F825309847013563
:1036A000EEE756F8253098470135F2E7C0370008B5
:1036B000C0370008C0370008C4370008024403467A
:1036C000934200D1704703F8011BF9E7F8B500BF3A
:1036D000F8BC08BC9E467047F8B500BFF8BC08BCF3
:0436E0009E4670474B
:1036E400120000002400000036000000400000002A
:1036F400060000000C0000001000000000000000A4
:10370400010000000200000004000000202020202E
:10371400010402080100000003000000050000008D
:103724000100000001000000060000000A00000083
:103734002000000002000000040000000800000057
:1037440010000000400000008000000000010000A4
:103754000002000000000000000000000000000063
:10376400000000000100000002000000030000004F
:1037740004000000A0860100400D0300801A06002A
:1037840000350C0040420F0080841E0000093D00FB
:1037940000127A000024F40000366E010048E801AB
:1037A400006CDC02000000000000000000000000CB
:0437B4000000000011
:0837B80008CAFF7F01000000B8
:0437C0006501000897
:0437C40041010008B7
:1037C8000100000010000000005C015C0200035CC6
:0837D800045C000000093D0043
:040000050800362198
:00000001FF
