:020000040800F2
:100000000080012071230008152300081723000831
:10001000192300081B2300081D230008000000000E
:100020000000000000000000000000001F23000886
:1000300021230008000000002323000825230008D6
:10004000C1230008C1230008C1230008C123000800
:10005000C1230008C1230008C1230008C1230008F0
:10006000C1230008C1230008C1230008C1230008E0
:10007000C1230008C1230008C1230008C1230008D0
:10008000C1230008C1230008C1230008C1230008C0
:10009000C1230008C1230008C1230008C1230008B0
:1000A000C1230008C1230008C1230008C1230008A0
:1000B000C1230008C1230008C1230008C123000890
:1000C000C1230008C1230008C1230008C123000880
:1000D000C1230008C1230008C1230008C123000870
:1000E000C1230008C1230008C1230008C123000860
:1000F000C1230008C1230008C1230008C123000850
:10010000C1230008C1230008C1230008C12300083F
:10011000C1230008C1230008C1230008C12300082F
:10012000C1230008C1230008C1230008C12300081F
:10013000C1230008C1230008C1230008C12300080F
:10014000C1230008C1230008C1230008C1230008FF
:10015000C1230008C1230008C1230008C1230008EF
:10016000C1230008C1230008C1230008C1230008DF
:10017000C1230008C1230008C123000800000000BB
:08018000C1230008C12300089F
:1001880010B5054C237833B9044B13B10448AFF3C9
:1001980000800123237010BD0C0000200000000027
:1001A8001C24000808B5034B1BB103490348AFF3EF
:1001B800008008BD00000000100000201C2400087A
:1001C80053B94AB9002908BF00281CBF4FF0FF31B6
:1001D8004FF0FF3000F07AB9ADF1080C6DE904CEAC
:1001E80000F006F8DDF804E0DDE9022304B070470A
:1001F8002DE9F0478C460D460446089E002B51D148
:100208008A4217466DD9B2FA82FEBEF1000F0BD0B2
:10021800CEF1200C01FA0EF520FA0CFC02FA0EF7CA
:100228004CEA050C00FA0EF44FEA174A250CBCFB01
:10023800FAF81FFA87F90AFB18CC45EA0C4508FBBF
:1002480009F3AB420AD9ED1908F1FF3280F0238196
:10025800AB4240F22081A8F102083D44ED1AA4B255
:10026800B5FBFAF00AFB105544EA054400FB09F90E
:10027800A14509D9E41900F1FF3380F00A81A145AD
:1002880040F2078102383C44A4EB090440EA0840E4
:100298000021002E61D024FA0EF40023346073602C
:1002A800BDE8F0878B4207D9002E54D0002186E89C
:1002B80021000846BDE8F087B3FA83F1002940F031
:1002C8008E80AB4202D3824200F2FA80841A65EB38
:1002D80003050120AC46002E3FD086E81010BDE88B
:1002E800F08712B90127B7FBF2F7B7FA87FEBEF11C
:1002F800000F34D1EB1B3A0C1FFA87FC0121B3FB2A
:10030800F2F8250C02FB183345EA03450CFB08F309
:10031800AB4207D9ED1908F1FF3002D2AB4200F227
:10032800D1808046ED1AA3B2B5FBF2F002FB10555E
:1003380043EA05440CFB00FCA44507D9E41900F185
:10034800FF3302D2A44500F2B8801846A4EB0C048F
:1003580040EA08409DE731463046BDE8F087CEF1D7
:10036800200405FA0EF307FA0EF720FA04F83A0CFF
:1003780025FA04F448EA0308B4FBF2F14FEA1845F9
:1003880002FB11441FFA87FC45EA044501FB0CF304
:10039800AB4200FA0EF409D9ED1901F1FF3080F0F3
:1003A8008A80AB4240F2878002393D44EB1A1FFA3B
:1003B80088F5B3FBF2F002FB103345EA034500FB76
:1003C8000CF3AB4207D9ED1900F1FF386FD2AB42FD
:1003D8006DD902383D44EB1A40EA01418FE7C1F17B
:1003E800200722FA07F88B4005FA01F448EA0303CC
:1003F80020FA07FE4FEA134CFD404EEA040EB5FB07
:10040800FCF94FEA1E440CFB19551FFA83F844EA1D
:10041800054509FB08F4AC4202FA01F200FA01FAB8
:1004280008D9ED1809F1FF3043D2AC4241D9A9F1FE
:1004380002091D442D1B1FFA8EFEB5FBFCF00CFBB8
:1004480010554EEA054400FB08F8A04507D9E41802
:1004580000F1FF3529D2A04527D902381C4440EACB
:100468000940A4EB0804A0FB02894C45C6464D464A
:1004780015D312D056B1BAEB0E0364EB050404FA97
:1004880007F7CB401F43CC40376074600021BDE8BC
:10049800F0871846F8E69046E0E6C245EAD2B8EB9F
:1004A800020E69EB03050138E4E72846D7E7404622
:1004B80091E78146BEE7014678E702383C4445E7C4
:1004C800084608E7A8F102083D442BE7704700BF3B
:1004D80038B50F4B0546186808B9012038BD0D4AD4
:1004E8004FF47A73B3FBF0F31068B0FBF3F000F04D
:1004F80097F804460028F0D10F2DEED80246294679
:100508004FF0FF3000F058F8034B20461D6038BD0F
:10051800000000200800002004000020094A136899
:1005280043F4807310B50320136000F033F8002003
:10053800FFF7CEFF044618B901F068FE204610BD4B
:100548000124FBE700200240034A044913680968B4
:100558000B441360704700BF2800002000000020F3
:10056800014B1868704700BF2800002038B50446C2
:10057800FFF7F6FF631C1CBF054B1B68054618BF39
:10058800E418FFF7EDFF401B8442FAD838BD00BFDE
:1005980000000020074AD36823F4E0631B041B0C07
:1005A80043F0BF63000243F4003300F4E060034308
:1005B800D360704700ED00E0174B30B5DC68C4F33A
:1005C8000224C4F10703251D042B28BF0423062D8C
:1005D8004FF0010505FA03F303F1FF338CBF033C29
:1005E80000241940A14005FA04F4013C22400028E7
:1005F80042EA01024FEA0212ADBF00F1604000F08A
:100608000F00064B00F56140B5BFD2B2D2B21A5402
:1006180080F8002330BD00BF00ED00E014ED00E0DD
:100628000138B0F1807F0AD2064B074A5860F021A2
:1006380082F823100020072298601A607047012072
:10064800704700BF10E000E000ED00E02DE9F04F3A
:1006580085B00B68DFF8A881674C01930023019AE5
:10066800DA4002D105B0BDE8F08F0126019A9E401C
:1006780012EA060E00F0B1804A6822F01007022F35
:1006880016D14FEAD30900EB890903F0070AD9F814
:1006980020504FEA8A0A4FF00F0C0CFA0AFC25EAA0
:1006A8000C0C0D6905FA0AF545EA0C05C9F8205045
:1006B8004FEA430C0325D0F800B005FA0CF5ED43DA
:1006C80002F0030A0BEA050B0AFA0CF9013F49EAA2
:1006D8000B09012FC0F8009011D8876805EA0709AF
:1006E800CF6807FA0CF747EA09078760476827EADF
:1006F8000609C2F300179F4047EA09074760BAF1A5
:10070800030F07D1C76A27EA0606C2F3C0079F404E
:100718003E43C662C66835408E6806FA0CF6354315
:10072800C560D50059D5D8F8605045F00105C8F81E
:100738006050D8F8605023F0030606F1804605F0B3
:10074800010506F58036039503F0030C039DB56893
:100758004FEA8C0C0F2707FA0CF7B0F1904F25EAF7
:1007680007073CD0254DA8423BD005F58065A84237
:1007780039D005F58065A84237D005F58065A842CF
:1007880035D005F58065A84233D005F58065A842C7
:1007980014BF0725062505FA0CF53D43B560256805
:1007A8006FEA0E06D70354BF35404EEA05052560AB
:1007B8006568970354BF35404EEA05056560A5682E
:1007C800D70254BF35404EEA0505A560E568920298
:1007D80054BF35404EEA0505E56001333FE7002583
:1007E800D9E70125D7E70225D5E70325D3E704256F
:1007F800D1E70525CFE700BF000401400004004809
:10080800001002400AB18161704781627047036835
:100818009A69910744BF00229A629A69D2075EBF1B
:100828009A6942F001029A61704730B5039C0568E5
:100838002343640D04F4806444F07F7444F4583412
:100848006868C1F3090144F47F74194344F0030450
:1008580041EA024120EA04042143696030BD2DE9E0
:10086800F041069F0446884616461D46226893694D
:1008780038EA03030CBF01230023B34202D000204F
:10088800BDE8F0816B1CF2D0FFF76AFEC01B854201
:1008980001D3002DEAD1636C43F020036364202365
:1008A80084F84130002384F8423084F84030012035
:1008B800BDE8F081036870B50446986910F010002F
:1008C8000D46164616D170BD691C14D0FFF748FEB8
:1008D800801B854200D36DB9636C43F020036364C9
:1008E800202384F84130002384F8423084F84030D3
:1008F800012070BD236899698A06E5D51022202554
:10090800DA612046DD61FFF782FF2268536823F031
:10091800FF7323F48B3323F4FF7323F00103536035
:10092800636C43F00403636484F84150DBE770B5FB
:1009380004460D46164623689B699B0701D500208F
:1009480070BD324629462046FFF7B4FFA0B96A1C9D
:10095800F1D0FFF705FE801B854201D3002DEAD1B7
:10096800636C43F020036364202384F84130002340
:1009780084F8423084F84030012070BD70B50446D8
:100988000D46164623689B699B0601D5002070BD5D
:10099800324629462046FFF78DFF90B9FFF7E0FD64
:1009A800801B854201D3002DECD1636C43F02003FA
:1009B8006364202384F84130002384F8423084F8AB
:1009C8004030012070BD10B5044600284AD090F888
:1009D800413003F0FF021BB980F8402001F02EFCE3
:1009E800242384F841302368E1681A6822F0010260
:1009F8001A60626822F070621A619A68012922F40A
:100A080000429A60A26824D142F400429A605A686F
:100A1800616942F0007242F400425A60DA6822F4D6
:100A28000042DA6022690A43A16942EA0122DA60D7
:100A3800216AE2690A431A601A6842F001021A60E0
:100A480000202023606484F84130206384F8420049
:100A580010BD42F4044202299A6004BF4FF40062B8
:100A68005A60D4E7012010BD2DE9F743984690F865
:100A78004130202B04460E46914640F0848090F881
:100A88004030012B7FD0012780F84070FFF768FDC8
:100A98001923054600903A464FF400412046FFF7D7
:100AA800DEFE18B1012003B0BDE8F083212384F8ED
:100AB8004130102384F842306064A4F82A80638DA2
:100AC800C4F824909BB2FF2B6063304B26D9FF22D9
:100AD800228500934FF0807331462046FFF7A5FE2C
:100AE800638D0A999BB22A462046FBB9FFF746FF59
:100AF8000028D7D123682021D9615A6822F0FF72D3
:100B080022F48B3222F4FF7222F001025A6084F838
:100B1800411084F8400084F84200C4E7628D0093D5
:100B280092B222854FF00073D2B2D5E7FFF7FFFEED
:100B38000028B7D1636A226813F8011B91626362C7
:100B4800638D228D013B9BB26385638D013A92B21E
:100B58009BB22285002BC3D0002AC1D100950A9BE5
:100B680080212046FFF77BFE00289BD1638D9BB236
:100B7800FF2B03D9FF2222850090ABE7628D0090FE
:100B880092B22285CEE702208DE700BF00200080C8
:100B98002DE9FF471D460023039390F84130202B91
:100BA800044690467DD103689B6913F4004378D1CD
:100BB80090F84020012A74D0012280F84020C1F327
:100BC8000906242280F8412046F420594364E3684A
:100BD8002268012B06BF46F0007343F400534B46CE
:100BE8005360FFF7BDFC074623689A699B69C2F307
:100BF8004012C3F3001302B96BB123689A690097D6
:100C080012F010022B4624D120212046FFF727FEA0
:100C1800A8B101201AE06B1CE6D0FFF7A1FCC01BAD
:100C2800854201D3002DDFD1202384F84130636C45
:100C380043F020036364002384F84030E9E7226826
:100C48002023D36184F8413084F8400004B0BDE823
:100C5800F087002220212046FFF701FE02460028E7
:100C6800D7D1236810214FF0200AD961C3F81CA0FE
:100C7800039941450ED1596841F480415960204695
:100C880000972B465146FFF7EAFD0028C1D123689B
:100C9800C3F81CA0039B01330393039B984596D884
:100CA800C2E70220D2E790F84120D2B2202A10B53C
:100CB8001DD190F84030012B19D0242380F8413001
:100CC80003681C6824F001041C601C6824F4805428
:100CD8001C601C6821431960196841F00101196002
:100CE800002380F8412080F84030184610BD0220CB
:100CF80010BD10B590F84140E4B2202C1CD190F8FA
:100D08004030012B18D0242380F8413003681A683A
:100D180022F001021A601A6822F4706242EA012184
:100D280019601A6842F001021A60002380F84140F5
:100D380080F84030184610BD022010BD024B1868DC
:100D480000F4C060704700BF00700040174B1A687D
:100D5800B0F5007F02F4C0621CD1B2F5007F15D057
:100D68001A6822F4C06242F400721A60104A1168CC
:100D780032224A430F49B2FBF1F21946013258694F
:100D8800400500D522B94B695B050DD4002070479A
:100D9800013AF4E7B2F5806F1FBF1A6822F4C06207
:100DA80042F480621A60F1E7032070470070004047
:100DB8000800002040420F0037B51E4DAB6DDA0029
:100DC800044618D5FFF7BAFFB0F5007F23D1802C71
:100DD80029D9A02C8CBF02200120174A136823F0C0
:100DE800070303431360136803F00703181A18BFB7
:100DF800012003B030BDAB6D43F08053AB65AB6DE4
:100E080003F080530193019BFFF798FFAB6D23F02C
:100E18008053AB65D8E7802C07D808D0A4F17003BD
:100E280058425841D9E70020D7E70320D5E70220E8
:100E3800D3E700BF0010024000200240224B9A680E
:100E4800D96812F00C0205D00C2A15D101F0030163
:100E5800012918D119681D48090755BFD3F89410FE
:100E68001968C1F30321C1F3031150F821004AB3F3
:100E78000C2A09D000207047042A22D0082A1448D6
:100E880018BF002070470020DA6802F00302022A27
:100E980015D00F49032A08BF0846DA68D968DB6805
:100EA800C3F34163C1F30621C2F30212013348437D
:100EB80001325B00B0FBF2F0B0FBF3F0704705487D
:100EC800EBE70448704700BF0010024068240008A0
:100ED80000127A000024F4002DE9F743054608B90A
:100EE800012047E0A64C0368A668E768DB0606F021
:100EF8000C0607F0030773D51EB10C2E52D1012F33
:100F080050D12368980702D5AB69002BE8D0236835
:100F1800286A190756BFD4F8943023681B0903F0D0
:100F2800F003834229D2FFF747FF0028D8D123686E
:100F380043F00803236023682A6A23F0F00313436D
:100F480023606368EA6923F47F4343EA022363600A
:100F5800FFF774FFA3688B4AC3F30313D35C03F052
:100F68001F03D840884B1860884B1868FFF7B0FA01
:100F7800002835D003B0BDE8F083236843F00803A8
:100F88002360236823F0F003034323606368EA695E
:100F980023F47F4343EA02236360FFF70DFF002831
:100FA800D6D09DE7AB69002B36D0236843F0010308
:100FB8002360FFF7D5FA804623689A0724D523686B
:100FC80043F00803236023682A6A23F0F0031343DD
:100FD80023606368EA6923F47F4343EA022363607A
:100FE8002B68D80729D42B68990767D42B6818076A
:100FF80000F19C802B68590700F1CA80A86A002874
:1010080040F033810020B5E7FFF7AAFAA0EB08000B
:101018000228D1D90320ADE7236823F00103236018
:10102800FFF79EFA804623689B07D9D5FFF798FA01
:10103800A0EB08000228F6D9ECE7082E03D00C2E06
:1010480008D1032F06D123689A03CCD56B68002BEF
:10105800C9D145E76B68B3F5803F10D1236843F4E5
:1010680080332360FFF77CFA804623689B03BAD459
:10107800FFF776FAA0EB08006428F6D9CAE7B3F5BB
:10108800A02F04D1236843F480232360E6E7226875
:1010980022F480322260226822F480222260002B0F
:1010A800E0D1FFF75DFA8046236898039BD5FFF7E8
:1010B80057FAA0EB08006428F6D9ABE7042E03D052
:1010C8000C2E10D1022F0ED12368590503D5EB68D9
:1010D800002B3FF405AF63682A6923F0F85343EA0D
:1010E8000263636082E7EB687BB1236843F4807333
:1010F8002360FFF735FA074623685A05EBD4FFF754
:101108002FFAC01B0228F7D984E7236823F48073D9
:101118002360FFF725FA074623685B057FF566AF6E
:10112800FFF71EFAC01B0228F6D973E76B699BB15B
:10113800D4F8943043F00103C4F89430FFF710FA60
:101148000746D4F894309A073FF554AFFFF708FAEA
:10115800C01B0228F5D95DE7D4F8943023F00103C9
:10116800C4F89430FFF7FCF90746D4F894309B078D
:101178007FF540AFFFF7F4F9C01B0228F5D949E71E
:10118800001002404F24000808000020040000203E
:10119800A36DD80029D4A36D43F08053A365A36D34
:1011A80003F080530193019B4FF00108794F3B688E
:1011B800D9051DD5AB68012B2BD1D4F8903043F05D
:1011C8000103C4F89030FFF7CBF941F2883907469C
:1011D800D4F890309B0742D5B8F1000F3FF40EAF1A
:1011E800A36D23F08053A36508E74FF00008DDE7FF
:1011F8003B6843F480733B60FFF7B2F981463B6874
:10120800DA05D7D4FFF7ACF9A0EB09000228F6D924
:1012180000E7052B06D1D4F8903043F00403C4F856
:101228009030CAE7D4F8902022F00102C4F8902048
:10123800D4F8902022F00402C4F89020002BC2D1E8
:10124800FFF78EF941F288390746D4F890309807AD
:10125800C2D5FFF785F9C01B4845F6D9DAE6FFF78E
:101268007FF9C01B4845B3D9D4E60C2E5CD023685F
:10127800022823F0807323603BD1FFF771F90646FB
:10128800236899012FD4E268434B1340EA6A134359
:101298006A6B43EA02232A6B013A43EA0213AA6BF8
:1012A800120943EA4243EA6B5208013A43EA4253BD
:1012B8002A6C5208013A43EA4263E360236843F028
:1012C80080732360E36843F08073E360FFF748F9B5
:1012D800054623689A013FF595AEFFF741F9401B93
:1012E8000228F6D996E6FFF73BF9801B0228C7D9F2
:1012F80090E6236813F0205F02BFE36823F003033E
:10130800E360E36823F0887323F48033E360FFF736
:1013180027F9054623689B017FF574AEFFF720F98E
:10132800401B0228F6D975E601283FF423AEE3688E
:10133800EA6A03F0030191427FF4D2AD296B03F00E
:1013480070020139B2EB011F7FF4CAAD696B03F477
:10135800FE42B2EB012F7FF4C3ADAA6B073A03F448
:10136800003118BF012291427FF4BAADEA6B5208EE
:1013780003F4C001013AB1EB425F7FF4B1AD2A6CCE
:101388005208013A03F0C063B3EB426F14BF012067
:101398000020EFE5007000408C809DF92DE9F041B8
:1013A8000E46044610B90120BDE8F081414A136891
:1013B80003F007038B422AD32368D90732D4216864
:1013C8008A075CD43B4A136803F007039E425ED346
:1013D80011F0040F384D65D10B0706D5AB682269AB
:1013E80023F4605343EAC203AB60FFF727FDAB6801
:1013F800324AC3F30313BDE8F041D35C03F01F0383
:10140800D8402F4B18602F4B1868FFF761B8136846
:1014180023F007030B431360136803F00703994293
:10142800C1D1C9E76268244D032A2B681BD113F088
:10143800007FB8D0AB6823F003031343AB60FFF71A
:101448008FF841F288380746AB68626803F00C03EE
:10145800B3EB820FB3D0FFF783F8C01B4045F3D935
:101468000320BDE8F081022A02D113F4003FE0E72F
:1014780012B913F0020FDCE713F4806FD9E70E4AB4
:10148800A068936823F0F003034393609AE7136816
:1014980023F0070333431360136803F007039E42E6
:1014A80081D195E7AB68E26823F4E0631343AB604E
:1014B80092E700BF00200240001002404F240008BD
:1014C8000800002004000020054B064A9B68C3F36F
:1014D8000223D35C044A106803F01F03D840704706
:1014E800001002405F24000808000020054B064A4F
:1014F8009B68C3F3C223D35C044A106803F01F033C
:10150800D8407047001002405F24000808000020FF
:10151800F8B5454BDA6812F0030F05460E461C462F
:1015280000682AD0DA6802F0030282423CD1002A1D
:101538003AD0DB686A68C3F302130133934233D1AC
:10154800236823F080632360FFF70AF807462368BF
:101558001A0132D4AF68002E36D0012E50D122693C
:10156800286922F4C002400822F4FE42013842EA07
:10157800072242EA4052226132E0022810D00328B2
:1015880014D0012810D11B689F0738D5E3686A6812
:1015980023F07303013A184340EA0210E060CFE7F2
:1015A8001B6813F4806FF1D10120F8BD1A6891030C
:1015B800ECD41B6813F4802FF5E7FEF7D1FFC01BAE
:1015C8000228C4D90320F8BD2169EB6821F41F3132
:1015D80021F4407141EA07211B0941EA4341216195
:1015E800236843F080632360FEF7BAFF064623684A
:1015F8001B0113D52369AA69134323610020F8BD91
:101608002369686923F0C063400823F4FE43013866
:1016180043EA072343EA40632361E1E7FEF7A0FFBB
:10162800801B0228E3D9CDE700100240F8B53D4BF6
:10163800DA6812F0030F05460E461C46006828D0EB
:10164800DA6802F0030282423AD1002A38D0DB6815
:101658006A68C3F302130133934231D1236823F03C
:1016680080532360FEF77CFF074623689A0030D436
:10167800A868002E34D06369296923F0C06349083B
:1016880023F4FE43013943EA002343EA41636361DB
:1016980032E0022810D0032814D0012810D11B688A
:1016A8009F0738D5E3686A6823F07303013A184343
:1016B80040EA0210E060D1E71B6813F4806FF1D1B3
:1016C8000120F8BD1A689103ECD41B6813F4802F2D
:1016D800F5E7FEF745FFC01B0228C6D90320F8BD71
:1016E8006269EB6822F41F3222F4407242EA002257
:1016F8001B0942EA43426261236843F08053236036
:10170800FEF72EFF064623689B0005D563696A69C4
:10171800134363610020F8BDFEF722FF801B0228F7
:10172800F1D9DBE7001002402DE9F347066816F40B
:101738000066044624D0416EB1F5800F2CD002D843
:10174800C1B101261CE0B1F5000F0DD0B1F5400F75
:10175800F7D14D4A616ED2F8883023F440030B4329
:10176800C2F8883000260BE0474AD36843F4803338
:10177800D360EEE70430FFF7CBFE06460028E8D03A
:101788002368D80406D5A16EB1F1807F74D008D83B
:10179800A9B10126354621E000212030FFF746FF98
:1017A800EBE7B1F1007F04D0B1F1407FF1D13546CC
:1017B80009E0354AD36843F48033D360F7E7201D46
:1017C800FFF7A6FE0546002D5CD12F4AA16ED2F880
:1017D800883023F040730B43C2F88830236899039C
:1017E80040F14F81284FBB6DDA0040F176814FF010
:1017F8000008DFF89890D9F8003043F48073C9F8EE
:101808000030FEF7ADFE8246D9F80030DB053FD543
:10181800002D44D1D7F8903013F4407315D0D4F884
:101828008420934211D0D7F89030D7F8902042F412
:101838008032C7F89020D7F8902023F4407322F420
:101848008032C7F89020C7F89030D80709D5FEF73E
:1018580087FE41F288390546D7F89030990740F15C
:101868000981D7F89030D4F8842023F440731343C7
:10187800C7F89030354612E0002104F12000FFF748
:10188800D5FE9FE72E46A9E70010024000700040F1
:10189800FEF766FEA0EB0A000228B5D90325B8F1C9
:1018A800000F03D0BB6D23F08053BB652368DA07B4
:1018B80008D59049A06BD1F8882022F00302024392
:1018C800C1F888209F0708D58A49E06BD1F888209D
:1018D80022F00C020243C1F888205E0708D585492A
:1018E800206CD1F8882022F030020243C1F8882009
:1018F800180708D57F49606CD1F8882022F0C0020B
:101908000243C1F88820D90608D57A49A06CD1F8D5
:10191800882022F440720243C1F888209A0608D52C
:101928007449E06CD1F8882022F440620243C1F87F
:1019380088209F0508D56F49E06DD1F8882022F4EA
:1019480040220243C1F888205E0508D56949206E07
:10195800D1F8882022F440120243C1F888205806A2
:1019680008D56449206DD1F8882022F440520243FA
:10197800C1F88820190608D55E49606DD1F888201D
:1019880022F440420243C1F88820DA0508D55949B3
:10199800A06DD1F8882022F440320243C1F8882093
:1019A8009B040FD5534AE16ED2F8883023F0406388
:1019B8000B43B1F1006FC2F8883064D1D36843F4A7
:1019C8008013D36023681F030FD54A4A216FD2F8CA
:1019D800883023F040630B43B1F1006FC2F88830C0
:1019E8005CD1D36843F48013D36023685E030FD5BA
:1019F800404A616FD2F8883023F040630B43B1F15D
:101A0800006FC2F8883054D1D36843F48013D36090
:101A18002368580412D53749A26FD1F8883023F0CB
:101A280040531343B2F1805FC1F888304CD1022192
:101A3800201DFFF76DFD002818BF05462268110418
:101A480008D52C49E06FD1F8883023F08043034350
:101A5800C1F88830D30309D5264AD4F88010D2F8C3
:101A6800883023F000430B43C2F88830284602B080
:101A7800BDE8F087FEF774FD401B48457FF6ECAEE5
:101A88000CE7354612E7B1F1806F9BD10121201D8B
:101A9800FFF73EFD002818BF054693E7B1F1806FB8
:101AA800A3D10121201DFFF733FD002818BF0546EB
:101AB8009BE7B1F1806FABD10121201DFFF728FD15
:101AC800002818BF0546A3E7B2F1005FB6D102218E
:101AD80004F12000FFF7AAFDADE7BB6D43F080538A
:101AE800BB65BB6D03F080530193019B4FF0010868
:101AF8007FE600BF001002400268C169F8B50446DD
:101B0800836800691568034360690343BA480B4357
:101B18002840034313605368E06823F440530343A9
:101B28005360B64BA0699A421CBF236A1843936856
:101B380023F4306303439360B14B9A4219D103F500
:101B48005843B04AD3F8883003F00303B1F5004F87
:101B5800D35C40F03881082B00F28F80DFE813F067
:101B68001A01CA00F9008D0014018D008D008D0046
:101B78003600A54B9A4207D103F5E633A34AD3F8BA
:101B8800883003F00C03E1E7A14B9A4223D103F517
:101B9800E433D3F8883003F03003102B00F0F180E1
:101BA8000BD8002B00F0F380B1F5004F4FF0010285
:101BB8004FF0000300F0F880A8E0202B00F0C6806A
:101BC800302BF1D1B1F5004F40F0B8806068430880
:101BD80003F58033C3E08F4B9A421ED103F5E233FD
:101BE800D3F8883003F0C003402B00F0BB800AD83C
:101BF8007BB9824B9A4240F0CA80FFF765FC00230C
:101C0800B0BB02463AE0802B00F09D80C02B00F06C
:101C1800B0807A4B9A42C7D12FE07F4B9A4211D1BC
:101C280003F5E033D3F8883003F44073B3F5807FCD
:101C380000F09880DCD9B3F5007F00F08480B3F51C
:101C4800407FE4E76D4B9A42AED103F5C833D3F831
:101C5800883003F44063B3F5806F00F08380C7D900
:101C6800B3F5006F6FD0B3F5406FD0E76B48022330
:101C7800626802EB4201814205D9012200232366F2
:101C880063661046F8BDB0EB023FF6D8082B2ED895
:101C9800DFE803F0052D1C2D242D2D2D2700FFF73F
:101CA80013FC62684FF4807156080027E1FB006757
:101CB800002330463946FEF783FA0022584BA0F538
:101CC80040719942D9D82368D860D7E75548550854
:101CD80000230021401941F10001ECE7FFF7AEF8BD
:101CE800DFE750080021002310F50000F3E7012288
:101CF8000020E3E7FFF7FAFB4EE0FFF7E5FB626839
:101D080000EB5203B3FBF2F39BB20022A3F11000E5
:101D18004FF6EF718842B0D82168CB60AEE7FFF785
:101D2800E5FBECE76068430803F5740303F510531B
:101D3800B3FBF0F3E8E7FFF781F8E0E760684308F2
:101D480003F50043F4E72D4B9A428FD0B1F5004FCD
:101D5800E8D16068430803F1F47303F59043B3FBDB
:101D6800F0F31FE0254B9A420BD1FFF767F80423E5
:101D780046E7224B9A427FF425AF4FF400400823F0
:101D880076E7B1F5004FD6D1FFF758F804E0B1F582
:101D9800004FB2D1FFF798FB61684A0802EB400395
:101DA800B3FBF1F39BB20022A3F110004FF6EF71E1
:101DB80088423FF662AF23F00F012068C3F3420365
:101DC8000B43C3605AE7082B3FF657AF01A252F8FE
:101DD80023F000BF031D0008271D00082D1D000863
:101DE800831C00083F1D0008831C0008831C000892
:101DF800831C0008451D0008F369FFEF00800040C0
:101E0800003801403E2400080044004042240008F5
:101E180000480040004C0040005000400024F400FE
:101E2800FFFC0F00000024F4436ADA0710B506D55A
:101E38000168846A4A6822F4003222434A609C0797
:101E480006D50168C46A4A6822F4803222434A608F
:101E5800590706D50168046B4A6822F48022224398
:101E68004A601A0706D50168446B4A6822F40042A2
:101E780022434A60DC0606D50168846B8A6822F42E
:101E8800805222438A60990606D50168C46B8A6825
:101E980022F4005222438A605A060FD50168046C66
:101EA8004A6822F480122243B4F5801F4A6005D1A3
:101EB8004A68446C22F4C00222434A601B0606D5D5
:101EC8000268816C536823F400230B43536010BDF0
:101ED8002DE9F041069D04460F46164698462168AE
:101EE800CA6937EA02030CBF01220022B24202D0BB
:101EF8000020BDE8F0816B1CF2D0FEF731FBA0EBAF
:101F08000800854201D3002DE9D123681A6822F41C
:101F1800D0721A609A6822F001029A6020236367DF
:101F2800A367002384F870300320BDE8F08173B5FF
:101F380004460026C667FEF713FB23681B681A07CA
:101F4800054615D423681B685B070AD56FF07E43E6
:101F5800009300222B464FF480012046FFF7B8FF7C
:101F680090B920230020636784F87000A3670CE011
:101F78006FF07E430093324603464FF4001120462B
:101F8800FFF7A6FF0028DDD0032002B070BD10B512
:101F9800044640B3436F1BB980F8703000F084F9F1
:101FA800226824236367136823F001031360204623
:101FB800FFF7A2FD012816D0636A13B12046FFF788
:101FC80033FF23685A6822F490425A609A6822F0D4
:101FD8002A029A601A6842F0010220461A60BDE897
:101FE8001040FFF7A4BF012010BD10B5B8B04422BF
:101FF800002105A800F006FA14220021684600F026
:1020080001FA0021882216A800F0FCF94FF480722A
:10201800089210220992012211920A220223129296
:1020280005A80722002405930F9310931392149385
:102038001593FEF751FF0F220421032368468DE80C
:102048001C0003940494FFF7A9F9422316A81693D9
:1020580025942A94FFF768FB4FF40070FEF776FE8C
:1020680038B010BD70B58EB0FEF758FAFFF7BDFF57
:102078001422002109A800F0C5F95B4B5B4DDA6C0E
:1020880042F00402DA64DA6C02F004020592059A5E
:10209800DA6C42F08002DA64DA6C02F080020692AE
:1020A800069ADA6C42F00102DA64DA6C02F0010294
:1020B8000792079ADA6C42F00202DA64DB6C03F0EA
:1020C80002030022089320214FF09040089BFEF75E
:1020D80099FB4FF400530024099309A9444B454840
:1020E8000A9301260B94FEF7B1FA202309A94FF0B1
:1020F800904009930A960B940C94FEF7A7FA3E4A6F
:102108003E4BAC60284685E80C00EE602C616C61A3
:10211800AC61EC612C62FEF756FC21462846FEF7BE
:10212800C2FD21462846FEF7E4FD3548354984605E
:102138004FF4E13380E80A000C234361C460046172
:102148008461C46104624462FFF721FF4FF4FA73AB
:102158000322E0212846FEF71BFD08B1FEF706FA28
:102168001420FEF703FA0EAA212302F8303D642357
:102178000093E02101231D48FEF776FC08B1FEF725
:10218800F5F91420FEF7F2F90EAA6424812302F867
:102198002C3DE021012300941448FEF765FC14202F
:1021A800FEF7E4F90EAAE72302F8283DE02101230F
:1021B80000940E48FEF758FC1420FEF7D7F9124A8F
:1021C80010685168128909AB03C3E0211A800748D7
:1021D80000940A2309AAFEF747FC1420FEF7C6F963
:1021E8002046FEF7C3F9FEE7001002402C0000204D
:1021F800000021100008004800540040EC9C90109A
:102208007800002000440040342400080A4B1A6E6D
:1022180042F001021A661A6E82B002F001020092C0
:10222800009A9A6D42F080529A659B6D03F0805334
:102238000193019B02B070470010024010B504469C
:1022480088B01422002103A800F0DCF82268134BA0
:102258009A4221D1124C1348E36C43F00203E36421
:10226800E36C03F002030193019B4FF44073039363
:1022780012230493012305930323069303A904233C
:102288000793FEF7E3F9A36D43F40013A365A36D69
:1022980003F400130293029B08B010BD00540040E1
:1022A800001002400004004810B5044688B014220B
:1022B800002103A800F0A6F82268134B9A4220D107
:1022C80003F5E63303A99A6D42F400329A659A6DD4
:1022D80002F400320192019ADA6C42F00102DA64E7
:1022E800DB6C03F001030293029B0C23039302238C
:1022F8000493032306934FF0904007230793FEF7B8
:10230800A5F908B010BD00BF004400407047FEE7C3
:10231800FEE7FEE7FEE7704770477047FEF714B91F
:102328000F49D1F8883043F47003C1F888300D4B59
:102338001A68002042F001021A6098601A6822F0B8
:10234800A85222F410221A604FF48052DA601A68F8
:1023580022F480221A6098614FF000638B60704706
:1023680000ED00E000100240DFF834D0002103E067
:102378000C4B5B58435004310B480C4B42189A42A3
:10238800F6D30B4A02E0002342F8043B094B9A4279
:10239800F9D3FFF7C5FF00F011F8FFF763FEFEE77A
:1023A80000800120A8240008000000200C00002064
:1023B8000C000020F8000020FEE7000070B50D4E6C
:1023C8000D4CA41BA4100025A54209D10B4E0C4CA2
:1023D80000F020F8A41BA4100025A54205D170BD6B
:1023E80056F8253098470135EEE756F825309847D6
:1023F8000135F2E7A0240008A0240008A024000862
:10240800A424000802440346934200D1704703F80D
:10241800011BF9E7F8B500BFF8BC08BC9E46704739
:0C242800F8B500BFF8BC08BC9E46704729
:102434000039013F0200033F043801040208001080
:1024440010100410101002101010080000000000FA
:10245400000000010203040607080900000000014F
:1024640002030400A0860100400D0300801A060048
:1024740000350C0040420F0080841E0000093D001E
:1024840000127A000024F40000366E010048E801CE
:04249400006CDC02FA
:0824980060DDFF7F0100000080
:0424A000AD01000882
:0424A40089010008A2
:0C24A800010000001000000000093D00D1
:04000005080023715B
:00000001FF
